{
	"contracts/studentContracts.sol/Register.sol": {
		"Register": {
			"abi": [
				{
					"inputs": [
						{
							"internalType": "address payable",
							"name": "_admissionsOffice",
							"type": "address"
						}
					],
					"stateMutability": "nonpayable",
					"type": "constructor"
				},
				{
					"inputs": [],
					"name": "admissionsOffice",
					"outputs": [
						{
							"internalType": "address payable",
							"name": "",
							"type": "address"
						}
					],
					"stateMutability": "view",
					"type": "function"
				},
				{
					"inputs": [],
					"name": "registerWithAdmissionsOffice",
					"outputs": [],
					"stateMutability": "payable",
					"type": "function"
				}
			],
			"devdoc": {
				"kind": "dev",
				"methods": {},
				"version": 1
			},
			"evm": {
				"assembly": "    /* \"contracts/studentContracts.sol/Register.sol\":112:710  contract Register {... */\n  mstore(0x40, 0x80)\n    /* \"contracts/studentContracts.sol/Register.sol\":182:282  constructor(address payable _admissionsOffice) {... */\n  callvalue\n  dup1\n  iszero\n  tag_1\n  jumpi\n  0x00\n  dup1\n  revert\ntag_1:\n  pop\n  mload(0x40)\n  sub(codesize, bytecodeSize)\n  dup1\n  bytecodeSize\n  dup4\n  codecopy\n  dup2\n  dup2\n  add\n  0x40\n  mstore\n  dup2\n  add\n  swap1\n  tag_2\n  swap2\n  swap1\n  tag_3\n  jump\t// in\ntag_2:\n    /* \"contracts/studentContracts.sol/Register.sol\":258:275  _admissionsOffice */\n  dup1\n    /* \"contracts/studentContracts.sol/Register.sol\":239:255  admissionsOffice */\n  0x00\n  dup1\n    /* \"contracts/studentContracts.sol/Register.sol\":239:275  admissionsOffice = _admissionsOffice */\n  0x0100\n  exp\n  dup2\n  sload\n  dup2\n  0xffffffffffffffffffffffffffffffffffffffff\n  mul\n  not\n  and\n  swap1\n  dup4\n  0xffffffffffffffffffffffffffffffffffffffff\n  and\n  mul\n  or\n  swap1\n  sstore\n  pop\n    /* \"contracts/studentContracts.sol/Register.sol\":182:282  constructor(address payable _admissionsOffice) {... */\n  pop\n    /* \"contracts/studentContracts.sol/Register.sol\":112:710  contract Register {... */\n  jump(tag_6)\n    /* \"#utility.yul\":88:205   */\ntag_8:\n    /* \"#utility.yul\":197:198   */\n  0x00\n    /* \"#utility.yul\":194:195   */\n  dup1\n    /* \"#utility.yul\":187:199   */\n  revert\n    /* \"#utility.yul\":334:460   */\ntag_10:\n    /* \"#utility.yul\":371:378   */\n  0x00\n    /* \"#utility.yul\":411:453   */\n  0xffffffffffffffffffffffffffffffffffffffff\n    /* \"#utility.yul\":404:409   */\n  dup3\n    /* \"#utility.yul\":400:454   */\n  and\n    /* \"#utility.yul\":389:454   */\n  swap1\n  pop\n    /* \"#utility.yul\":334:460   */\n  swap2\n  swap1\n  pop\n  jump\t// out\n    /* \"#utility.yul\":466:570   */\ntag_11:\n    /* \"#utility.yul\":511:518   */\n  0x00\n    /* \"#utility.yul\":540:564   */\n  tag_20\n    /* \"#utility.yul\":558:563   */\n  dup3\n    /* \"#utility.yul\":540:564   */\n  tag_10\n  jump\t// in\ntag_20:\n    /* \"#utility.yul\":529:564   */\n  swap1\n  pop\n    /* \"#utility.yul\":466:570   */\n  swap2\n  swap1\n  pop\n  jump\t// out\n    /* \"#utility.yul\":576:714   */\ntag_12:\n    /* \"#utility.yul\":657:689   */\n  tag_22\n    /* \"#utility.yul\":683:688   */\n  dup2\n    /* \"#utility.yul\":657:689   */\n  tag_11\n  jump\t// in\ntag_22:\n    /* \"#utility.yul\":650:655   */\n  dup2\n    /* \"#utility.yul\":647:690   */\n  eq\n    /* \"#utility.yul\":637:708   */\n  tag_23\n  jumpi\n    /* \"#utility.yul\":704:705   */\n  0x00\n    /* \"#utility.yul\":701:702   */\n  dup1\n    /* \"#utility.yul\":694:706   */\n  revert\n    /* \"#utility.yul\":637:708   */\ntag_23:\n    /* \"#utility.yul\":576:714   */\n  pop\n  jump\t// out\n    /* \"#utility.yul\":720:879   */\ntag_13:\n    /* \"#utility.yul\":785:790   */\n  0x00\n    /* \"#utility.yul\":816:822   */\n  dup2\n    /* \"#utility.yul\":810:823   */\n  mload\n    /* \"#utility.yul\":801:823   */\n  swap1\n  pop\n    /* \"#utility.yul\":832:873   */\n  tag_25\n    /* \"#utility.yul\":867:872   */\n  dup2\n    /* \"#utility.yul\":832:873   */\n  tag_12\n  jump\t// in\ntag_25:\n    /* \"#utility.yul\":720:879   */\n  swap3\n  swap2\n  pop\n  pop\n  jump\t// out\n    /* \"#utility.yul\":885:1252   */\ntag_3:\n    /* \"#utility.yul\":963:969   */\n  0x00\n    /* \"#utility.yul\":1012:1014   */\n  0x20\n    /* \"#utility.yul\":1000:1009   */\n  dup3\n    /* \"#utility.yul\":991:998   */\n  dup5\n    /* \"#utility.yul\":987:1010   */\n  sub\n    /* \"#utility.yul\":983:1015   */\n  slt\n    /* \"#utility.yul\":980:1099   */\n  iszero\n  tag_27\n  jumpi\n    /* \"#utility.yul\":1018:1097   */\n  tag_28\n  tag_8\n  jump\t// in\ntag_28:\n    /* \"#utility.yul\":980:1099   */\ntag_27:\n    /* \"#utility.yul\":1138:1139   */\n  0x00\n    /* \"#utility.yul\":1163:1235   */\n  tag_29\n    /* \"#utility.yul\":1227:1234   */\n  dup5\n    /* \"#utility.yul\":1218:1224   */\n  dup3\n    /* \"#utility.yul\":1207:1216   */\n  dup6\n    /* \"#utility.yul\":1203:1225   */\n  add\n    /* \"#utility.yul\":1163:1235   */\n  tag_13\n  jump\t// in\ntag_29:\n    /* \"#utility.yul\":1153:1235   */\n  swap2\n  pop\n    /* \"#utility.yul\":1109:1245   */\n  pop\n    /* \"#utility.yul\":885:1252   */\n  swap3\n  swap2\n  pop\n  pop\n  jump\t// out\n    /* \"contracts/studentContracts.sol/Register.sol\":112:710  contract Register {... */\ntag_6:\n  dataSize(sub_0)\n  dup1\n  dataOffset(sub_0)\n  0x00\n  codecopy\n  0x00\n  return\nstop\n\nsub_0: assembly {\n        /* \"contracts/studentContracts.sol/Register.sol\":112:710  contract Register {... */\n      mstore(0x40, 0x80)\n      jumpi(tag_1, lt(calldatasize, 0x04))\n      shr(0xe0, calldataload(0x00))\n      dup1\n      0xd442ec02\n      eq\n      tag_2\n      jumpi\n      dup1\n      0xdd6d89d9\n      eq\n      tag_3\n      jumpi\n    tag_1:\n      0x00\n      dup1\n      revert\n        /* \"contracts/studentContracts.sol/Register.sol\":288:708  function registerWithAdmissionsOffice() external payable {... */\n    tag_2:\n      tag_4\n      tag_5\n      jump\t// in\n    tag_4:\n      stop\n        /* \"contracts/studentContracts.sol/Register.sol\":136:175  address payable public admissionsOffice */\n    tag_3:\n      callvalue\n      dup1\n      iszero\n      tag_6\n      jumpi\n      0x00\n      dup1\n      revert\n    tag_6:\n      pop\n      tag_7\n      tag_8\n      jump\t// in\n    tag_7:\n      mload(0x40)\n      tag_9\n      swap2\n      swap1\n      tag_10\n      jump\t// in\n    tag_9:\n      mload(0x40)\n      dup1\n      swap2\n      sub\n      swap1\n      return\n        /* \"contracts/studentContracts.sol/Register.sol\":288:708  function registerWithAdmissionsOffice() external payable {... */\n    tag_5:\n        /* \"contracts/studentContracts.sol/Register.sol\":391:392  0 */\n      0x00\n        /* \"contracts/studentContracts.sol/Register.sol\":363:393  admissionsOffice != address(0) */\n      0xffffffffffffffffffffffffffffffffffffffff\n      and\n        /* \"contracts/studentContracts.sol/Register.sol\":363:379  admissionsOffice */\n      0x00\n      dup1\n      sload\n      swap1\n      0x0100\n      exp\n      swap1\n      div\n      0xffffffffffffffffffffffffffffffffffffffff\n      and\n        /* \"contracts/studentContracts.sol/Register.sol\":363:393  admissionsOffice != address(0) */\n      0xffffffffffffffffffffffffffffffffffffffff\n      and\n      sub\n        /* \"contracts/studentContracts.sol/Register.sol\":355:430  require(admissionsOffice != address(0), \"AdmissionsOffice address not set\") */\n      tag_12\n      jumpi\n      mload(0x40)\n      0x08c379a000000000000000000000000000000000000000000000000000000000\n      dup2\n      mstore\n      0x04\n      add\n      tag_13\n      swap1\n      tag_14\n      jump\t// in\n    tag_13:\n      mload(0x40)\n      dup1\n      swap2\n      sub\n      swap1\n      revert\n    tag_12:\n        /* \"contracts/studentContracts.sol/Register.sol\":461:467  10 wei */\n      0x0a\n        /* \"contracts/studentContracts.sol/Register.sol\":448:457  msg.value */\n      callvalue\n        /* \"contracts/studentContracts.sol/Register.sol\":448:467  msg.value >= 10 wei */\n      lt\n      iszero\n        /* \"contracts/studentContracts.sol/Register.sol\":440:492  require(msg.value >= 10 wei, \"Insufficient payment\") */\n      tag_15\n      jumpi\n      mload(0x40)\n      0x08c379a000000000000000000000000000000000000000000000000000000000\n      dup2\n      mstore\n      0x04\n      add\n      tag_16\n      swap1\n      tag_17\n      jump\t// in\n    tag_16:\n      mload(0x40)\n      dup1\n      swap2\n      sub\n      swap1\n      revert\n    tag_15:\n        /* \"contracts/studentContracts.sol/Register.sol\":504:516  bool success */\n      0x00\n        /* \"contracts/studentContracts.sol/Register.sol\":522:538  admissionsOffice */\n      dup1\n      0x00\n      swap1\n      sload\n      swap1\n      0x0100\n      exp\n      swap1\n      div\n      0xffffffffffffffffffffffffffffffffffffffff\n      and\n        /* \"contracts/studentContracts.sol/Register.sol\":522:543  admissionsOffice.call */\n      0xffffffffffffffffffffffffffffffffffffffff\n      and\n        /* \"contracts/studentContracts.sol/Register.sol\":551:557  10 wei */\n      0x0a\n        /* \"contracts/studentContracts.sol/Register.sol\":522:562  admissionsOffice.call{value: 10 wei}(\"\") */\n      mload(0x40)\n      tag_18\n      swap1\n      tag_19\n      jump\t// in\n    tag_18:\n      0x00\n      mload(0x40)\n      dup1\n      dup4\n      sub\n      dup2\n      dup6\n      dup8\n      gas\n      call\n      swap3\n      pop\n      pop\n      pop\n      returndatasize\n      dup1\n      0x00\n      dup2\n      eq\n      tag_22\n      jumpi\n      mload(0x40)\n      swap2\n      pop\n      and(add(returndatasize, 0x3f), not(0x1f))\n      dup3\n      add\n      0x40\n      mstore\n      returndatasize\n      dup3\n      mstore\n      returndatasize\n      0x00\n      0x20\n      dup5\n      add\n      returndatacopy\n      jump(tag_21)\n    tag_22:\n      0x60\n      swap2\n      pop\n    tag_21:\n      pop\n        /* \"contracts/studentContracts.sol/Register.sol\":503:562  (bool success, ) = admissionsOffice.call{value: 10 wei}(\"\") */\n      pop\n      swap1\n      pop\n        /* \"contracts/studentContracts.sol/Register.sol\":580:587  success */\n      dup1\n        /* \"contracts/studentContracts.sol/Register.sol\":572:631  require(success, \"ETH transfer to AdmissionsOffice failed\") */\n      tag_23\n      jumpi\n      mload(0x40)\n      0x08c379a000000000000000000000000000000000000000000000000000000000\n      dup2\n      mstore\n      0x04\n      add\n      tag_24\n      swap1\n      tag_25\n      jump\t// in\n    tag_24:\n      mload(0x40)\n      dup1\n      swap2\n      sub\n      swap1\n      revert\n    tag_23:\n        /* \"contracts/studentContracts.sol/Register.sol\":659:675  admissionsOffice */\n      0x00\n      dup1\n      sload\n      swap1\n      0x0100\n      exp\n      swap1\n      div\n      0xffffffffffffffffffffffffffffffffffffffff\n      and\n        /* \"contracts/studentContracts.sol/Register.sol\":642:689  AdmissionsOffice(admissionsOffice).addApplicant */\n      0xffffffffffffffffffffffffffffffffffffffff\n      and\n      0x6ebf2242\n        /* \"contracts/studentContracts.sol/Register.sol\":690:700  msg.sender */\n      caller\n        /* \"contracts/studentContracts.sol/Register.sol\":642:701  AdmissionsOffice(admissionsOffice).addApplicant(msg.sender) */\n      mload(0x40)\n      dup3\n      0xffffffff\n      and\n      0xe0\n      shl\n      dup2\n      mstore\n      0x04\n      add\n      tag_26\n      swap2\n      swap1\n      tag_27\n      jump\t// in\n    tag_26:\n      0x00\n      mload(0x40)\n      dup1\n      dup4\n      sub\n      dup2\n      0x00\n      dup8\n      dup1\n      extcodesize\n      iszero\n      dup1\n      iszero\n      tag_28\n      jumpi\n      0x00\n      dup1\n      revert\n    tag_28:\n      pop\n      gas\n      call\n      iszero\n      dup1\n      iszero\n      tag_30\n      jumpi\n      returndatasize\n      0x00\n      dup1\n      returndatacopy\n      revert(0x00, returndatasize)\n    tag_30:\n      pop\n      pop\n      pop\n      pop\n        /* \"contracts/studentContracts.sol/Register.sol\":345:708  {... */\n      pop\n        /* \"contracts/studentContracts.sol/Register.sol\":288:708  function registerWithAdmissionsOffice() external payable {... */\n      jump\t// out\n        /* \"contracts/studentContracts.sol/Register.sol\":136:175  address payable public admissionsOffice */\n    tag_8:\n      0x00\n      dup1\n      sload\n      swap1\n      0x0100\n      exp\n      swap1\n      div\n      0xffffffffffffffffffffffffffffffffffffffff\n      and\n      dup2\n      jump\t// out\n        /* \"#utility.yul\":7:133   */\n    tag_31:\n        /* \"#utility.yul\":44:51   */\n      0x00\n        /* \"#utility.yul\":84:126   */\n      0xffffffffffffffffffffffffffffffffffffffff\n        /* \"#utility.yul\":77:82   */\n      dup3\n        /* \"#utility.yul\":73:127   */\n      and\n        /* \"#utility.yul\":62:127   */\n      swap1\n      pop\n        /* \"#utility.yul\":7:133   */\n      swap2\n      swap1\n      pop\n      jump\t// out\n        /* \"#utility.yul\":139:243   */\n    tag_32:\n        /* \"#utility.yul\":184:191   */\n      0x00\n        /* \"#utility.yul\":213:237   */\n      tag_49\n        /* \"#utility.yul\":231:236   */\n      dup3\n        /* \"#utility.yul\":213:237   */\n      tag_31\n      jump\t// in\n    tag_49:\n        /* \"#utility.yul\":202:237   */\n      swap1\n      pop\n        /* \"#utility.yul\":139:243   */\n      swap2\n      swap1\n      pop\n      jump\t// out\n        /* \"#utility.yul\":249:391   */\n    tag_33:\n        /* \"#utility.yul\":352:384   */\n      tag_51\n        /* \"#utility.yul\":378:383   */\n      dup2\n        /* \"#utility.yul\":352:384   */\n      tag_32\n      jump\t// in\n    tag_51:\n        /* \"#utility.yul\":347:350   */\n      dup3\n        /* \"#utility.yul\":340:385   */\n      mstore\n        /* \"#utility.yul\":249:391   */\n      pop\n      pop\n      jump\t// out\n        /* \"#utility.yul\":397:651   */\n    tag_10:\n        /* \"#utility.yul\":506:510   */\n      0x00\n        /* \"#utility.yul\":544:546   */\n      0x20\n        /* \"#utility.yul\":533:542   */\n      dup3\n        /* \"#utility.yul\":529:547   */\n      add\n        /* \"#utility.yul\":521:547   */\n      swap1\n      pop\n        /* \"#utility.yul\":557:644   */\n      tag_53\n        /* \"#utility.yul\":641:642   */\n      0x00\n        /* \"#utility.yul\":630:639   */\n      dup4\n        /* \"#utility.yul\":626:643   */\n      add\n        /* \"#utility.yul\":617:623   */\n      dup5\n        /* \"#utility.yul\":557:644   */\n      tag_33\n      jump\t// in\n    tag_53:\n        /* \"#utility.yul\":397:651   */\n      swap3\n      swap2\n      pop\n      pop\n      jump\t// out\n        /* \"#utility.yul\":657:826   */\n    tag_34:\n        /* \"#utility.yul\":741:752   */\n      0x00\n        /* \"#utility.yul\":775:781   */\n      dup3\n        /* \"#utility.yul\":770:773   */\n      dup3\n        /* \"#utility.yul\":763:782   */\n      mstore\n        /* \"#utility.yul\":815:819   */\n      0x20\n        /* \"#utility.yul\":810:813   */\n      dup3\n        /* \"#utility.yul\":806:820   */\n      add\n        /* \"#utility.yul\":791:820   */\n      swap1\n      pop\n        /* \"#utility.yul\":657:826   */\n      swap3\n      swap2\n      pop\n      pop\n      jump\t// out\n        /* \"#utility.yul\":832:1014   */\n    tag_35:\n        /* \"#utility.yul\":972:1006   */\n      0x41646d697373696f6e734f66666963652061646472657373206e6f7420736574\n        /* \"#utility.yul\":968:969   */\n      0x00\n        /* \"#utility.yul\":960:966   */\n      dup3\n        /* \"#utility.yul\":956:970   */\n      add\n        /* \"#utility.yul\":949:1007   */\n      mstore\n        /* \"#utility.yul\":832:1014   */\n      pop\n      jump\t// out\n        /* \"#utility.yul\":1020:1386   */\n    tag_36:\n        /* \"#utility.yul\":1162:1165   */\n      0x00\n        /* \"#utility.yul\":1183:1250   */\n      tag_57\n        /* \"#utility.yul\":1247:1249   */\n      0x20\n        /* \"#utility.yul\":1242:1245   */\n      dup4\n        /* \"#utility.yul\":1183:1250   */\n      tag_34\n      jump\t// in\n    tag_57:\n        /* \"#utility.yul\":1176:1250   */\n      swap2\n      pop\n        /* \"#utility.yul\":1259:1352   */\n      tag_58\n        /* \"#utility.yul\":1348:1351   */\n      dup3\n        /* \"#utility.yul\":1259:1352   */\n      tag_35\n      jump\t// in\n    tag_58:\n        /* \"#utility.yul\":1377:1379   */\n      0x20\n        /* \"#utility.yul\":1372:1375   */\n      dup3\n        /* \"#utility.yul\":1368:1380   */\n      add\n        /* \"#utility.yul\":1361:1380   */\n      swap1\n      pop\n        /* \"#utility.yul\":1020:1386   */\n      swap2\n      swap1\n      pop\n      jump\t// out\n        /* \"#utility.yul\":1392:1811   */\n    tag_14:\n        /* \"#utility.yul\":1558:1562   */\n      0x00\n        /* \"#utility.yul\":1596:1598   */\n      0x20\n        /* \"#utility.yul\":1585:1594   */\n      dup3\n        /* \"#utility.yul\":1581:1599   */\n      add\n        /* \"#utility.yul\":1573:1599   */\n      swap1\n      pop\n        /* \"#utility.yul\":1645:1654   */\n      dup2\n        /* \"#utility.yul\":1639:1643   */\n      dup2\n        /* \"#utility.yul\":1635:1655   */\n      sub\n        /* \"#utility.yul\":1631:1632   */\n      0x00\n        /* \"#utility.yul\":1620:1629   */\n      dup4\n        /* \"#utility.yul\":1616:1633   */\n      add\n        /* \"#utility.yul\":1609:1656   */\n      mstore\n        /* \"#utility.yul\":1673:1804   */\n      tag_60\n        /* \"#utility.yul\":1799:1803   */\n      dup2\n        /* \"#utility.yul\":1673:1804   */\n      tag_36\n      jump\t// in\n    tag_60:\n        /* \"#utility.yul\":1665:1804   */\n      swap1\n      pop\n        /* \"#utility.yul\":1392:1811   */\n      swap2\n      swap1\n      pop\n      jump\t// out\n        /* \"#utility.yul\":1817:1987   */\n    tag_37:\n        /* \"#utility.yul\":1957:1979   */\n      0x496e73756666696369656e74207061796d656e74000000000000000000000000\n        /* \"#utility.yul\":1953:1954   */\n      0x00\n        /* \"#utility.yul\":1945:1951   */\n      dup3\n        /* \"#utility.yul\":1941:1955   */\n      add\n        /* \"#utility.yul\":1934:1980   */\n      mstore\n        /* \"#utility.yul\":1817:1987   */\n      pop\n      jump\t// out\n        /* \"#utility.yul\":1993:2359   */\n    tag_38:\n        /* \"#utility.yul\":2135:2138   */\n      0x00\n        /* \"#utility.yul\":2156:2223   */\n      tag_63\n        /* \"#utility.yul\":2220:2222   */\n      0x14\n        /* \"#utility.yul\":2215:2218   */\n      dup4\n        /* \"#utility.yul\":2156:2223   */\n      tag_34\n      jump\t// in\n    tag_63:\n        /* \"#utility.yul\":2149:2223   */\n      swap2\n      pop\n        /* \"#utility.yul\":2232:2325   */\n      tag_64\n        /* \"#utility.yul\":2321:2324   */\n      dup3\n        /* \"#utility.yul\":2232:2325   */\n      tag_37\n      jump\t// in\n    tag_64:\n        /* \"#utility.yul\":2350:2352   */\n      0x20\n        /* \"#utility.yul\":2345:2348   */\n      dup3\n        /* \"#utility.yul\":2341:2353   */\n      add\n        /* \"#utility.yul\":2334:2353   */\n      swap1\n      pop\n        /* \"#utility.yul\":1993:2359   */\n      swap2\n      swap1\n      pop\n      jump\t// out\n        /* \"#utility.yul\":2365:2784   */\n    tag_17:\n        /* \"#utility.yul\":2531:2535   */\n      0x00\n        /* \"#utility.yul\":2569:2571   */\n      0x20\n        /* \"#utility.yul\":2558:2567   */\n      dup3\n        /* \"#utility.yul\":2554:2572   */\n      add\n        /* \"#utility.yul\":2546:2572   */\n      swap1\n      pop\n        /* \"#utility.yul\":2618:2627   */\n      dup2\n        /* \"#utility.yul\":2612:2616   */\n      dup2\n        /* \"#utility.yul\":2608:2628   */\n      sub\n        /* \"#utility.yul\":2604:2605   */\n      0x00\n        /* \"#utility.yul\":2593:2602   */\n      dup4\n        /* \"#utility.yul\":2589:2606   */\n      add\n        /* \"#utility.yul\":2582:2629   */\n      mstore\n        /* \"#utility.yul\":2646:2777   */\n      tag_66\n        /* \"#utility.yul\":2772:2776   */\n      dup2\n        /* \"#utility.yul\":2646:2777   */\n      tag_38\n      jump\t// in\n    tag_66:\n        /* \"#utility.yul\":2638:2777   */\n      swap1\n      pop\n        /* \"#utility.yul\":2365:2784   */\n      swap2\n      swap1\n      pop\n      jump\t// out\n        /* \"#utility.yul\":2790:2937   */\n    tag_39:\n        /* \"#utility.yul\":2891:2902   */\n      0x00\n        /* \"#utility.yul\":2928:2931   */\n      dup2\n        /* \"#utility.yul\":2913:2931   */\n      swap1\n      pop\n        /* \"#utility.yul\":2790:2937   */\n      swap3\n      swap2\n      pop\n      pop\n      jump\t// out\n        /* \"#utility.yul\":2943:3057   */\n    tag_40:\n      pop\n      jump\t// out\n        /* \"#utility.yul\":3063:3461   */\n    tag_41:\n        /* \"#utility.yul\":3222:3225   */\n      0x00\n        /* \"#utility.yul\":3243:3326   */\n      tag_70\n        /* \"#utility.yul\":3324:3325   */\n      0x00\n        /* \"#utility.yul\":3319:3322   */\n      dup4\n        /* \"#utility.yul\":3243:3326   */\n      tag_39\n      jump\t// in\n    tag_70:\n        /* \"#utility.yul\":3236:3326   */\n      swap2\n      pop\n        /* \"#utility.yul\":3335:3428   */\n      tag_71\n        /* \"#utility.yul\":3424:3427   */\n      dup3\n        /* \"#utility.yul\":3335:3428   */\n      tag_40\n      jump\t// in\n    tag_71:\n        /* \"#utility.yul\":3453:3454   */\n      0x00\n        /* \"#utility.yul\":3448:3451   */\n      dup3\n        /* \"#utility.yul\":3444:3455   */\n      add\n        /* \"#utility.yul\":3437:3455   */\n      swap1\n      pop\n        /* \"#utility.yul\":3063:3461   */\n      swap2\n      swap1\n      pop\n      jump\t// out\n        /* \"#utility.yul\":3467:3846   */\n    tag_19:\n        /* \"#utility.yul\":3651:3654   */\n      0x00\n        /* \"#utility.yul\":3673:3820   */\n      tag_73\n        /* \"#utility.yul\":3816:3819   */\n      dup3\n        /* \"#utility.yul\":3673:3820   */\n      tag_41\n      jump\t// in\n    tag_73:\n        /* \"#utility.yul\":3666:3820   */\n      swap2\n      pop\n        /* \"#utility.yul\":3837:3840   */\n      dup2\n        /* \"#utility.yul\":3830:3840   */\n      swap1\n      pop\n        /* \"#utility.yul\":3467:3846   */\n      swap2\n      swap1\n      pop\n      jump\t// out\n        /* \"#utility.yul\":3852:4078   */\n    tag_42:\n        /* \"#utility.yul\":3992:4026   */\n      0x455448207472616e7366657220746f2041646d697373696f6e734f6666696365\n        /* \"#utility.yul\":3988:3989   */\n      0x00\n        /* \"#utility.yul\":3980:3986   */\n      dup3\n        /* \"#utility.yul\":3976:3990   */\n      add\n        /* \"#utility.yul\":3969:4027   */\n      mstore\n        /* \"#utility.yul\":4061:4070   */\n      0x206661696c656400000000000000000000000000000000000000000000000000\n        /* \"#utility.yul\":4056:4058   */\n      0x20\n        /* \"#utility.yul\":4048:4054   */\n      dup3\n        /* \"#utility.yul\":4044:4059   */\n      add\n        /* \"#utility.yul\":4037:4071   */\n      mstore\n        /* \"#utility.yul\":3852:4078   */\n      pop\n      jump\t// out\n        /* \"#utility.yul\":4084:4450   */\n    tag_43:\n        /* \"#utility.yul\":4226:4229   */\n      0x00\n        /* \"#utility.yul\":4247:4314   */\n      tag_76\n        /* \"#utility.yul\":4311:4313   */\n      0x27\n        /* \"#utility.yul\":4306:4309   */\n      dup4\n        /* \"#utility.yul\":4247:4314   */\n      tag_34\n      jump\t// in\n    tag_76:\n        /* \"#utility.yul\":4240:4314   */\n      swap2\n      pop\n        /* \"#utility.yul\":4323:4416   */\n      tag_77\n        /* \"#utility.yul\":4412:4415   */\n      dup3\n        /* \"#utility.yul\":4323:4416   */\n      tag_42\n      jump\t// in\n    tag_77:\n        /* \"#utility.yul\":4441:4443   */\n      0x40\n        /* \"#utility.yul\":4436:4439   */\n      dup3\n        /* \"#utility.yul\":4432:4444   */\n      add\n        /* \"#utility.yul\":4425:4444   */\n      swap1\n      pop\n        /* \"#utility.yul\":4084:4450   */\n      swap2\n      swap1\n      pop\n      jump\t// out\n        /* \"#utility.yul\":4456:4875   */\n    tag_25:\n        /* \"#utility.yul\":4622:4626   */\n      0x00\n        /* \"#utility.yul\":4660:4662   */\n      0x20\n        /* \"#utility.yul\":4649:4658   */\n      dup3\n        /* \"#utility.yul\":4645:4663   */\n      add\n        /* \"#utility.yul\":4637:4663   */\n      swap1\n      pop\n        /* \"#utility.yul\":4709:4718   */\n      dup2\n        /* \"#utility.yul\":4703:4707   */\n      dup2\n        /* \"#utility.yul\":4699:4719   */\n      sub\n        /* \"#utility.yul\":4695:4696   */\n      0x00\n        /* \"#utility.yul\":4684:4693   */\n      dup4\n        /* \"#utility.yul\":4680:4697   */\n      add\n        /* \"#utility.yul\":4673:4720   */\n      mstore\n        /* \"#utility.yul\":4737:4868   */\n      tag_79\n        /* \"#utility.yul\":4863:4867   */\n      dup2\n        /* \"#utility.yul\":4737:4868   */\n      tag_43\n      jump\t// in\n    tag_79:\n        /* \"#utility.yul\":4729:4868   */\n      swap1\n      pop\n        /* \"#utility.yul\":4456:4875   */\n      swap2\n      swap1\n      pop\n      jump\t// out\n        /* \"#utility.yul\":4881:4977   */\n    tag_44:\n        /* \"#utility.yul\":4918:4925   */\n      0x00\n        /* \"#utility.yul\":4947:4971   */\n      tag_81\n        /* \"#utility.yul\":4965:4970   */\n      dup3\n        /* \"#utility.yul\":4947:4971   */\n      tag_31\n      jump\t// in\n    tag_81:\n        /* \"#utility.yul\":4936:4971   */\n      swap1\n      pop\n        /* \"#utility.yul\":4881:4977   */\n      swap2\n      swap1\n      pop\n      jump\t// out\n        /* \"#utility.yul\":4983:5101   */\n    tag_45:\n        /* \"#utility.yul\":5070:5094   */\n      tag_83\n        /* \"#utility.yul\":5088:5093   */\n      dup2\n        /* \"#utility.yul\":5070:5094   */\n      tag_44\n      jump\t// in\n    tag_83:\n        /* \"#utility.yul\":5065:5068   */\n      dup3\n        /* \"#utility.yul\":5058:5095   */\n      mstore\n        /* \"#utility.yul\":4983:5101   */\n      pop\n      pop\n      jump\t// out\n        /* \"#utility.yul\":5107:5329   */\n    tag_27:\n        /* \"#utility.yul\":5200:5204   */\n      0x00\n        /* \"#utility.yul\":5238:5240   */\n      0x20\n        /* \"#utility.yul\":5227:5236   */\n      dup3\n        /* \"#utility.yul\":5223:5241   */\n      add\n        /* \"#utility.yul\":5215:5241   */\n      swap1\n      pop\n        /* \"#utility.yul\":5251:5322   */\n      tag_85\n        /* \"#utility.yul\":5319:5320   */\n      0x00\n        /* \"#utility.yul\":5308:5317   */\n      dup4\n        /* \"#utility.yul\":5304:5321   */\n      add\n        /* \"#utility.yul\":5295:5301   */\n      dup5\n        /* \"#utility.yul\":5251:5322   */\n      tag_45\n      jump\t// in\n    tag_85:\n        /* \"#utility.yul\":5107:5329   */\n      swap3\n      swap2\n      pop\n      pop\n      jump\t// out\n\n    auxdata: 0xa26469706673582212205238413c486a1b905cac09f162ef7c6e8413869bd63de816c28700d01aa7b86d64736f6c63430008120033\n}\n",
				"bytecode": {
					"linkReferences": {},
					"object": "608060405234801561001057600080fd5b5060405161065c38038061065c833981810160405281019061003291906100db565b806000806101000a81548173ffffffffffffffffffffffffffffffffffffffff021916908373ffffffffffffffffffffffffffffffffffffffff16021790555050610108565b600080fd5b600073ffffffffffffffffffffffffffffffffffffffff82169050919050565b60006100a88261007d565b9050919050565b6100b88161009d565b81146100c357600080fd5b50565b6000815190506100d5816100af565b92915050565b6000602082840312156100f1576100f0610078565b5b60006100ff848285016100c6565b91505092915050565b610545806101176000396000f3fe6080604052600436106100295760003560e01c8063d442ec021461002e578063dd6d89d914610038575b600080fd5b610036610063565b005b34801561004457600080fd5b5061004d610292565b60405161005a91906102f7565b60405180910390f35b600073ffffffffffffffffffffffffffffffffffffffff1660008054906101000a900473ffffffffffffffffffffffffffffffffffffffff1673ffffffffffffffffffffffffffffffffffffffff16036100f2576040517f08c379a00000000000000000000000000000000000000000000000000000000081526004016100e99061036f565b60405180910390fd5b600a341015610136576040517f08c379a000000000000000000000000000000000000000000000000000000000815260040161012d906103db565b60405180910390fd5b60008060009054906101000a900473ffffffffffffffffffffffffffffffffffffffff1673ffffffffffffffffffffffffffffffffffffffff16600a60405161017e9061042c565b60006040518083038185875af1925050503d80600081146101bb576040519150601f19603f3d011682016040523d82523d6000602084013e6101c0565b606091505b5050905080610204576040517f08c379a00000000000000000000000000000000000000000000000000000000081526004016101fb906104b3565b60405180910390fd5b60008054906101000a900473ffffffffffffffffffffffffffffffffffffffff1673ffffffffffffffffffffffffffffffffffffffff16636ebf2242336040518263ffffffff1660e01b815260040161025d91906104f4565b600060405180830381600087803b15801561027757600080fd5b505af115801561028b573d6000803e3d6000fd5b5050505050565b60008054906101000a900473ffffffffffffffffffffffffffffffffffffffff1681565b600073ffffffffffffffffffffffffffffffffffffffff82169050919050565b60006102e1826102b6565b9050919050565b6102f1816102d6565b82525050565b600060208201905061030c60008301846102e8565b92915050565b600082825260208201905092915050565b7f41646d697373696f6e734f66666963652061646472657373206e6f7420736574600082015250565b6000610359602083610312565b915061036482610323565b602082019050919050565b600060208201905081810360008301526103888161034c565b9050919050565b7f496e73756666696369656e74207061796d656e74000000000000000000000000600082015250565b60006103c5601483610312565b91506103d08261038f565b602082019050919050565b600060208201905081810360008301526103f4816103b8565b9050919050565b600081905092915050565b50565b60006104166000836103fb565b915061042182610406565b600082019050919050565b600061043782610409565b9150819050919050565b7f455448207472616e7366657220746f2041646d697373696f6e734f666669636560008201527f206661696c656400000000000000000000000000000000000000000000000000602082015250565b600061049d602783610312565b91506104a882610441565b604082019050919050565b600060208201905081810360008301526104cc81610490565b9050919050565b60006104de826102b6565b9050919050565b6104ee816104d3565b82525050565b600060208201905061050960008301846104e5565b9291505056fea26469706673582212205238413c486a1b905cac09f162ef7c6e8413869bd63de816c28700d01aa7b86d64736f6c63430008120033",
					"opcodes": "PUSH1 0x80 PUSH1 0x40 MSTORE CALLVALUE DUP1 ISZERO PUSH2 0x10 JUMPI PUSH1 0x0 DUP1 REVERT JUMPDEST POP PUSH1 0x40 MLOAD PUSH2 0x65C CODESIZE SUB DUP1 PUSH2 0x65C DUP4 CODECOPY DUP2 DUP2 ADD PUSH1 0x40 MSTORE DUP2 ADD SWAP1 PUSH2 0x32 SWAP2 SWAP1 PUSH2 0xDB JUMP JUMPDEST DUP1 PUSH1 0x0 DUP1 PUSH2 0x100 EXP DUP2 SLOAD DUP2 PUSH20 0xFFFFFFFFFFFFFFFFFFFFFFFFFFFFFFFFFFFFFFFF MUL NOT AND SWAP1 DUP4 PUSH20 0xFFFFFFFFFFFFFFFFFFFFFFFFFFFFFFFFFFFFFFFF AND MUL OR SWAP1 SSTORE POP POP PUSH2 0x108 JUMP JUMPDEST PUSH1 0x0 DUP1 REVERT JUMPDEST PUSH1 0x0 PUSH20 0xFFFFFFFFFFFFFFFFFFFFFFFFFFFFFFFFFFFFFFFF DUP3 AND SWAP1 POP SWAP2 SWAP1 POP JUMP JUMPDEST PUSH1 0x0 PUSH2 0xA8 DUP3 PUSH2 0x7D JUMP JUMPDEST SWAP1 POP SWAP2 SWAP1 POP JUMP JUMPDEST PUSH2 0xB8 DUP2 PUSH2 0x9D JUMP JUMPDEST DUP2 EQ PUSH2 0xC3 JUMPI PUSH1 0x0 DUP1 REVERT JUMPDEST POP JUMP JUMPDEST PUSH1 0x0 DUP2 MLOAD SWAP1 POP PUSH2 0xD5 DUP2 PUSH2 0xAF JUMP JUMPDEST SWAP3 SWAP2 POP POP JUMP JUMPDEST PUSH1 0x0 PUSH1 0x20 DUP3 DUP5 SUB SLT ISZERO PUSH2 0xF1 JUMPI PUSH2 0xF0 PUSH2 0x78 JUMP JUMPDEST JUMPDEST PUSH1 0x0 PUSH2 0xFF DUP5 DUP3 DUP6 ADD PUSH2 0xC6 JUMP JUMPDEST SWAP2 POP POP SWAP3 SWAP2 POP POP JUMP JUMPDEST PUSH2 0x545 DUP1 PUSH2 0x117 PUSH1 0x0 CODECOPY PUSH1 0x0 RETURN INVALID PUSH1 0x80 PUSH1 0x40 MSTORE PUSH1 0x4 CALLDATASIZE LT PUSH2 0x29 JUMPI PUSH1 0x0 CALLDATALOAD PUSH1 0xE0 SHR DUP1 PUSH4 0xD442EC02 EQ PUSH2 0x2E JUMPI DUP1 PUSH4 0xDD6D89D9 EQ PUSH2 0x38 JUMPI JUMPDEST PUSH1 0x0 DUP1 REVERT JUMPDEST PUSH2 0x36 PUSH2 0x63 JUMP JUMPDEST STOP JUMPDEST CALLVALUE DUP1 ISZERO PUSH2 0x44 JUMPI PUSH1 0x0 DUP1 REVERT JUMPDEST POP PUSH2 0x4D PUSH2 0x292 JUMP JUMPDEST PUSH1 0x40 MLOAD PUSH2 0x5A SWAP2 SWAP1 PUSH2 0x2F7 JUMP JUMPDEST PUSH1 0x40 MLOAD DUP1 SWAP2 SUB SWAP1 RETURN JUMPDEST PUSH1 0x0 PUSH20 0xFFFFFFFFFFFFFFFFFFFFFFFFFFFFFFFFFFFFFFFF AND PUSH1 0x0 DUP1 SLOAD SWAP1 PUSH2 0x100 EXP SWAP1 DIV PUSH20 0xFFFFFFFFFFFFFFFFFFFFFFFFFFFFFFFFFFFFFFFF AND PUSH20 0xFFFFFFFFFFFFFFFFFFFFFFFFFFFFFFFFFFFFFFFF AND SUB PUSH2 0xF2 JUMPI PUSH1 0x40 MLOAD PUSH32 0x8C379A000000000000000000000000000000000000000000000000000000000 DUP2 MSTORE PUSH1 0x4 ADD PUSH2 0xE9 SWAP1 PUSH2 0x36F JUMP JUMPDEST PUSH1 0x40 MLOAD DUP1 SWAP2 SUB SWAP1 REVERT JUMPDEST PUSH1 0xA CALLVALUE LT ISZERO PUSH2 0x136 JUMPI PUSH1 0x40 MLOAD PUSH32 0x8C379A000000000000000000000000000000000000000000000000000000000 DUP2 MSTORE PUSH1 0x4 ADD PUSH2 0x12D SWAP1 PUSH2 0x3DB JUMP JUMPDEST PUSH1 0x40 MLOAD DUP1 SWAP2 SUB SWAP1 REVERT JUMPDEST PUSH1 0x0 DUP1 PUSH1 0x0 SWAP1 SLOAD SWAP1 PUSH2 0x100 EXP SWAP1 DIV PUSH20 0xFFFFFFFFFFFFFFFFFFFFFFFFFFFFFFFFFFFFFFFF AND PUSH20 0xFFFFFFFFFFFFFFFFFFFFFFFFFFFFFFFFFFFFFFFF AND PUSH1 0xA PUSH1 0x40 MLOAD PUSH2 0x17E SWAP1 PUSH2 0x42C JUMP JUMPDEST PUSH1 0x0 PUSH1 0x40 MLOAD DUP1 DUP4 SUB DUP2 DUP6 DUP8 GAS CALL SWAP3 POP POP POP RETURNDATASIZE DUP1 PUSH1 0x0 DUP2 EQ PUSH2 0x1BB JUMPI PUSH1 0x40 MLOAD SWAP2 POP PUSH1 0x1F NOT PUSH1 0x3F RETURNDATASIZE ADD AND DUP3 ADD PUSH1 0x40 MSTORE RETURNDATASIZE DUP3 MSTORE RETURNDATASIZE PUSH1 0x0 PUSH1 0x20 DUP5 ADD RETURNDATACOPY PUSH2 0x1C0 JUMP JUMPDEST PUSH1 0x60 SWAP2 POP JUMPDEST POP POP SWAP1 POP DUP1 PUSH2 0x204 JUMPI PUSH1 0x40 MLOAD PUSH32 0x8C379A000000000000000000000000000000000000000000000000000000000 DUP2 MSTORE PUSH1 0x4 ADD PUSH2 0x1FB SWAP1 PUSH2 0x4B3 JUMP JUMPDEST PUSH1 0x40 MLOAD DUP1 SWAP2 SUB SWAP1 REVERT JUMPDEST PUSH1 0x0 DUP1 SLOAD SWAP1 PUSH2 0x100 EXP SWAP1 DIV PUSH20 0xFFFFFFFFFFFFFFFFFFFFFFFFFFFFFFFFFFFFFFFF AND PUSH20 0xFFFFFFFFFFFFFFFFFFFFFFFFFFFFFFFFFFFFFFFF AND PUSH4 0x6EBF2242 CALLER PUSH1 0x40 MLOAD DUP3 PUSH4 0xFFFFFFFF AND PUSH1 0xE0 SHL DUP2 MSTORE PUSH1 0x4 ADD PUSH2 0x25D SWAP2 SWAP1 PUSH2 0x4F4 JUMP JUMPDEST PUSH1 0x0 PUSH1 0x40 MLOAD DUP1 DUP4 SUB DUP2 PUSH1 0x0 DUP8 DUP1 EXTCODESIZE ISZERO DUP1 ISZERO PUSH2 0x277 JUMPI PUSH1 0x0 DUP1 REVERT JUMPDEST POP GAS CALL ISZERO DUP1 ISZERO PUSH2 0x28B JUMPI RETURNDATASIZE PUSH1 0x0 DUP1 RETURNDATACOPY RETURNDATASIZE PUSH1 0x0 REVERT JUMPDEST POP POP POP POP POP JUMP JUMPDEST PUSH1 0x0 DUP1 SLOAD SWAP1 PUSH2 0x100 EXP SWAP1 DIV PUSH20 0xFFFFFFFFFFFFFFFFFFFFFFFFFFFFFFFFFFFFFFFF AND DUP2 JUMP JUMPDEST PUSH1 0x0 PUSH20 0xFFFFFFFFFFFFFFFFFFFFFFFFFFFFFFFFFFFFFFFF DUP3 AND SWAP1 POP SWAP2 SWAP1 POP JUMP JUMPDEST PUSH1 0x0 PUSH2 0x2E1 DUP3 PUSH2 0x2B6 JUMP JUMPDEST SWAP1 POP SWAP2 SWAP1 POP JUMP JUMPDEST PUSH2 0x2F1 DUP2 PUSH2 0x2D6 JUMP JUMPDEST DUP3 MSTORE POP POP JUMP JUMPDEST PUSH1 0x0 PUSH1 0x20 DUP3 ADD SWAP1 POP PUSH2 0x30C PUSH1 0x0 DUP4 ADD DUP5 PUSH2 0x2E8 JUMP JUMPDEST SWAP3 SWAP2 POP POP JUMP JUMPDEST PUSH1 0x0 DUP3 DUP3 MSTORE PUSH1 0x20 DUP3 ADD SWAP1 POP SWAP3 SWAP2 POP POP JUMP JUMPDEST PUSH32 0x41646D697373696F6E734F66666963652061646472657373206E6F7420736574 PUSH1 0x0 DUP3 ADD MSTORE POP JUMP JUMPDEST PUSH1 0x0 PUSH2 0x359 PUSH1 0x20 DUP4 PUSH2 0x312 JUMP JUMPDEST SWAP2 POP PUSH2 0x364 DUP3 PUSH2 0x323 JUMP JUMPDEST PUSH1 0x20 DUP3 ADD SWAP1 POP SWAP2 SWAP1 POP JUMP JUMPDEST PUSH1 0x0 PUSH1 0x20 DUP3 ADD SWAP1 POP DUP2 DUP2 SUB PUSH1 0x0 DUP4 ADD MSTORE PUSH2 0x388 DUP2 PUSH2 0x34C JUMP JUMPDEST SWAP1 POP SWAP2 SWAP1 POP JUMP JUMPDEST PUSH32 0x496E73756666696369656E74207061796D656E74000000000000000000000000 PUSH1 0x0 DUP3 ADD MSTORE POP JUMP JUMPDEST PUSH1 0x0 PUSH2 0x3C5 PUSH1 0x14 DUP4 PUSH2 0x312 JUMP JUMPDEST SWAP2 POP PUSH2 0x3D0 DUP3 PUSH2 0x38F JUMP JUMPDEST PUSH1 0x20 DUP3 ADD SWAP1 POP SWAP2 SWAP1 POP JUMP JUMPDEST PUSH1 0x0 PUSH1 0x20 DUP3 ADD SWAP1 POP DUP2 DUP2 SUB PUSH1 0x0 DUP4 ADD MSTORE PUSH2 0x3F4 DUP2 PUSH2 0x3B8 JUMP JUMPDEST SWAP1 POP SWAP2 SWAP1 POP JUMP JUMPDEST PUSH1 0x0 DUP2 SWAP1 POP SWAP3 SWAP2 POP POP JUMP JUMPDEST POP JUMP JUMPDEST PUSH1 0x0 PUSH2 0x416 PUSH1 0x0 DUP4 PUSH2 0x3FB JUMP JUMPDEST SWAP2 POP PUSH2 0x421 DUP3 PUSH2 0x406 JUMP JUMPDEST PUSH1 0x0 DUP3 ADD SWAP1 POP SWAP2 SWAP1 POP JUMP JUMPDEST PUSH1 0x0 PUSH2 0x437 DUP3 PUSH2 0x409 JUMP JUMPDEST SWAP2 POP DUP2 SWAP1 POP SWAP2 SWAP1 POP JUMP JUMPDEST PUSH32 0x455448207472616E7366657220746F2041646D697373696F6E734F6666696365 PUSH1 0x0 DUP3 ADD MSTORE PUSH32 0x206661696C656400000000000000000000000000000000000000000000000000 PUSH1 0x20 DUP3 ADD MSTORE POP JUMP JUMPDEST PUSH1 0x0 PUSH2 0x49D PUSH1 0x27 DUP4 PUSH2 0x312 JUMP JUMPDEST SWAP2 POP PUSH2 0x4A8 DUP3 PUSH2 0x441 JUMP JUMPDEST PUSH1 0x40 DUP3 ADD SWAP1 POP SWAP2 SWAP1 POP JUMP JUMPDEST PUSH1 0x0 PUSH1 0x20 DUP3 ADD SWAP1 POP DUP2 DUP2 SUB PUSH1 0x0 DUP4 ADD MSTORE PUSH2 0x4CC DUP2 PUSH2 0x490 JUMP JUMPDEST SWAP1 POP SWAP2 SWAP1 POP JUMP JUMPDEST PUSH1 0x0 PUSH2 0x4DE DUP3 PUSH2 0x2B6 JUMP JUMPDEST SWAP1 POP SWAP2 SWAP1 POP JUMP JUMPDEST PUSH2 0x4EE DUP2 PUSH2 0x4D3 JUMP JUMPDEST DUP3 MSTORE POP POP JUMP JUMPDEST PUSH1 0x0 PUSH1 0x20 DUP3 ADD SWAP1 POP PUSH2 0x509 PUSH1 0x0 DUP4 ADD DUP5 PUSH2 0x4E5 JUMP JUMPDEST SWAP3 SWAP2 POP POP JUMP INVALID LOG2 PUSH5 0x6970667358 0x22 SLT KECCAK256 MSTORE CODESIZE COINBASE EXTCODECOPY BASEFEE PUSH11 0x1B905CAC09F162EF7C6E84 SGT DUP7 SWAP12 0xD6 RETURNDATASIZE 0xE8 AND 0xC2 DUP8 STOP 0xD0 BYTE 0xA7 0xB8 PUSH14 0x64736F6C63430008120033000000 "
				},
				"gasEstimates": {
					"creation": {
						"codeDepositCost": "269800",
						"executionCost": "infinite",
						"totalCost": "infinite"
					},
					"external": {
						"admissionsOffice()": "2511",
						"registerWithAdmissionsOffice()": "infinite"
					}
				},
				"methodIdentifiers": {
					"admissionsOffice()": "dd6d89d9",
					"registerWithAdmissionsOffice()": "d442ec02"
				}
			},
			"storageLayout": {
				"storage": [
					{
						"astId": 4,
						"contract": "contracts/studentContracts.sol/Register.sol:Register",
						"label": "admissionsOffice",
						"offset": 0,
						"slot": "0",
						"type": "t_address_payable"
					}
				],
				"types": {
					"t_address_payable": {
						"encoding": "inplace",
						"label": "address payable",
						"numberOfBytes": "20"
					}
				}
			},
			"userdoc": {
				"kind": "user",
				"methods": {},
				"version": 1
			}
		}
	}
}