{
  "abi": [
    {
      "inputs": [
        {
          "internalType": "address",
          "name": "_admissionsContract",
          "type": "address"
        }
      ],
      "stateMutability": "nonpayable",
      "type": "constructor"
    },
    {
      "anonymous": false,
      "inputs": [
        {
          "indexed": true,
          "internalType": "address",
          "name": "officerAddress",
          "type": "address"
        }
      ],
      "name": "OfficerDeployed",
      "type": "event"
    },
    {
      "inputs": [
        {
          "internalType": "address",
          "name": "applicantContract",
          "type": "address"
        }
      ],
      "name": "acceptApplicant",
      "outputs": [],
      "stateMutability": "nonpayable",
      "type": "function"
    },
    {
      "inputs": [
        {
          "internalType": "address",
          "name": "applicantContract",
          "type": "address"
        }
      ],
      "name": "denyApplicant",
      "outputs": [],
      "stateMutability": "nonpayable",
      "type": "function"
    },
    {
      "inputs": [],
      "name": "getAssignedApplicants",
      "outputs": [
        {
          "internalType": "address[]",
          "name": "",
          "type": "address[]"
        },
        {
          "internalType": "uint256",
          "name": "",
          "type": "uint256"
        }
      ],
      "stateMutability": "view",
      "type": "function"
    },
    {
      "inputs": [
        {
          "internalType": "address",
          "name": "",
          "type": "address"
        },
        {
          "internalType": "address",
          "name": "from",
          "type": "address"
        },
        {
          "internalType": "uint256",
          "name": "tokenId",
          "type": "uint256"
        },
        {
          "internalType": "bytes",
          "name": "",
          "type": "bytes"
        }
      ],
      "name": "onERC721Received",
      "outputs": [
        {
          "internalType": "bytes4",
          "name": "",
          "type": "bytes4"
        }
      ],
      "stateMutability": "nonpayable",
      "type": "function"
    },
    {
      "inputs": [
        {
          "internalType": "address",
          "name": "applicantContract",
          "type": "address"
        }
      ],
      "name": "viewApplicant",
      "outputs": [
        {
          "internalType": "string",
          "name": "",
          "type": "string"
        },
        {
          "internalType": "string",
          "name": "",
          "type": "string"
        },
        {
          "internalType": "string",
          "name": "",
          "type": "string"
        },
        {
          "internalType": "bool",
          "name": "",
          "type": "bool"
        },
        {
          "internalType": "string",
          "name": "",
          "type": "string"
        }
      ],
      "stateMutability": "view",
      "type": "function"
    },
    {
      "inputs": [
        {
          "internalType": "address",
          "name": "applicantContract",
          "type": "address"
        }
      ],
      "name": "waitlistApplicant",
      "outputs": [],
      "stateMutability": "nonpayable",
      "type": "function"
    }
  ],
  "bytecode": {
    "object": "0x608060405234801561001057600080fd5b5060405161144138038061144183398101604081905261002f916100d7565b600380546001600160a01b03199081163317909155600180546001600160a01b0384169216821790556040516319dd80d760e31b815230600482015263ceec06b890602401600060405180830381600087803b15801561008e57600080fd5b505af11580156100a2573d6000803e3d6000fd5b50506040513092507f15ce2e01d8b987a47fd0cbb371ae0aaebb8f7411cd9b55046c2ecc25e8f8548c9150600090a250610107565b6000602082840312156100e957600080fd5b81516001600160a01b038116811461010057600080fd5b9392505050565b61132b806101166000396000f3fe608060405234801561001057600080fd5b50600436106100625760003560e01c8063150b7a021461006757806319c7f0ae14610098578063582cba3e146100bc57806379f7d458146100d15780637cc24b07146100e7578063b221110c146100fa575b600080fd5b61007a610075366004610cfb565b61010d565b6040516001600160e01b031990911681526020015b60405180910390f35b6100ab6100a6366004610d9a565b6102bf565b60405161008f959493929190610e0e565b6100cf6100ca366004610d9a565b61066f565b005b6100d96106c6565b60405161008f929190610e6f565b6100cf6100f5366004610d9a565b610744565b6100cf610108366004610d9a565b610796565b6000600019600254106101735760405162461bcd60e51b8152602060048201526024808201527f4d6178696d756d206e756d626572206f66206170706c6963616e74732072656160448201526318da195960e21b60648201526084015b60405180910390fd5b604051631f2f4bfd60e01b81526004810185905233906000908290631f2f4bfd90602401600060405180830381865afa1580156101b4573d6000803e3d6000fd5b505050506040513d6000823e601f3d908101601f191682016040526101dc9190810190610f9c565b6040805160a081018252825181526020808401518183015282840151828401526000606083018190528351808301855281815260808401526001600160a01b038c16815260049091529190912081519293509091819061023c90826110da565b506020820151600182019061025190826110da565b506040820151600282019061026690826110da565b50606082015160038201805460ff19169115159190911790556080820151600482019061029390826110da565b505060028054915060006102a68361119a565b90915550630a85bd0160e11b9998505050505050505050565b6060806060600060606102d1866107ec565b6103525760405162461bcd60e51b815260206004820152604660248201527f596f752063616e206f6e6c792076696577206170706c69636174696f6e73206f60448201527f66206170706c6963616e747320796f752068617665206265656e2061737369676064820152656e656420746f60d01b608482015260a40161016a565b6001600160a01b038616600090815260046020526040808220815160a0810190925280548290829061038390611051565b80601f01602080910402602001604051908101604052809291908181526020018280546103af90611051565b80156103fc5780601f106103d1576101008083540402835291602001916103fc565b820191906000526020600020905b8154815290600101906020018083116103df57829003601f168201915b5050505050815260200160018201805461041590611051565b80601f016020809104026020016040519081016040528092919081815260200182805461044190611051565b801561048e5780601f106104635761010080835404028352916020019161048e565b820191906000526020600020905b81548152906001019060200180831161047157829003601f168201915b505050505081526020016002820180546104a790611051565b80601f01602080910402602001604051908101604052809291908181526020018280546104d390611051565b80156105205780601f106104f557610100808354040283529160200191610520565b820191906000526020600020905b81548152906001019060200180831161050357829003601f168201915b5050509183525050600382015460ff161515602082015260048201805460409092019161054c90611051565b80601f016020809104026020016040519081016040528092919081815260200182805461057890611051565b80156105c55780601f1061059a576101008083540402835291602001916105c5565b820191906000526020600020905b8154815290600101906020018083116105a857829003601f168201915b505050919092525050815151919250501561060357806000015181602001518260400151836060015184608001519550955095509550955050610666565b5050604080516020808201835260008083528351808301855281815284518086018652601881527f4170706c69636174696f6e206e6f74207265636569766564000000000000000081850152855193840190955281835292975091955091935091505b91939590929450565b6003546001600160a01b031633146106995760405162461bcd60e51b815260040161016a906111c1565b6106c381604051806040016040528060088152602001671858d8d95c1d195960c21b8152506108c8565b50565b60015460405163d95ef2a760e01b81523060048201526060916000916001600160a01b039091169063d95ef2a790602401600060405180830381865afa158015610714573d6000803e3d6000fd5b505050506040513d6000823e601f3d908101601f1916820160405261073c9190810190611212565b915091509091565b6003546001600160a01b0316331461076e5760405162461bcd60e51b815260040161016a906111c1565b6106c3816040518060400160405280600681526020016519195b9a595960d21b8152506108c8565b6003546001600160a01b031633146107c05760405162461bcd60e51b815260040161016a906111c1565b6106c3816040518060400160405280600a8152602001691dd85a5d1b1a5cdd195960b21b8152506108c8565b60015460405163d95ef2a760e01b815230600482015260009182916001600160a01b039091169063d95ef2a790602401600060405180830381865afa158015610839573d6000803e3d6000fd5b505050506040513d6000823e601f3d908101601f191682016040526108619190810190611212565b50905060005b81518110156108be57836001600160a01b031682828151811061088c5761088c6112cc565b60200260200101516001600160a01b0316036108ac575060019392505050565b806108b68161119a565b915050610867565b5060009392505050565b6108d1826107ec565b6109545760405162461bcd60e51b815260206004820152604860248201527f596f752063616e206f6e6c7920646563696465206170706c69636174696f6e7360448201527f206f66206170706c6963616e747320796f752068617665206265656e2061737360648201526769676e656420746f60c01b608482015260a40161016a565b60008151116109a55760405162461bcd60e51b815260206004820152601860248201527f4465636973696f6e2063616e6e6f7420626520656d7074790000000000000000604482015260640161016a565b6001600160a01b0382166000908152600460205260409020600381015460ff1615610a235760405162461bcd60e51b815260206004820152602860248201527f4465636973696f6e20616c7265616479206d61646520666f72207468697320616044820152671c1c1b1a58d85b9d60c21b606482015260840161016a565b60038101805460ff1916600117905560048101610a4083826110da565b5060405163529f623960e01b81526001600160a01b0384169063529f623990610a6d9085906004016112e2565b600060405180830381600087803b158015610a8757600080fd5b505af1158015610a9b573d6000803e3d6000fd5b50506040805180820190915260088152671858d8d95c1d195960c21b6020918201528451908501207f82efbe9e3ba5cdbaefb0bebf37c2e01ee027f0895f5cb30a72092afee0b4d790019150610b529050576001546040516302756b2960e01b81526001600160a01b038581166004830152909116906302756b29906024015b600060405180830381600087803b158015610b3557600080fd5b505af1158015610b49573d6000803e3d6000fd5b50505050610c7c565b60408051808201909152600a8152691dd85a5d1b1a5cdd195960b21b6020918201528251908301207f68a1a03f8a8d950b4bbb1ccce889bfa4fb710ea5fe19bf1021218e5e09e662ae01610bd257600154604051638965250760e01b81526001600160a01b03858116600483015290911690638965250790602401610b1b565b60408051808201909152600681526519195b9a595960d21b6020918201528251908301207ff0d5aa7ec6e821c3d6e571ae66e3ac34c7c97671c7ebf90153e8201198d0d03e01610c7c576001546040516326b28a4160e21b81526001600160a01b03858116600483015290911690639aca290490602401600060405180830381600087803b158015610c6357600080fd5b505af1158015610c77573d6000803e3d6000fd5b505050505b6001546040516305ad666b60e51b81523060048201526001600160a01b0385811660248301529091169063b5accd6090604401600060405180830381600087803b158015610cc957600080fd5b505af1158015610cdd573d6000803e3d6000fd5b50505050505050565b6001600160a01b03811681146106c357600080fd5b600080600080600060808688031215610d1357600080fd5b8535610d1e81610ce6565b94506020860135610d2e81610ce6565b935060408601359250606086013567ffffffffffffffff80821115610d5257600080fd5b818801915088601f830112610d6657600080fd5b813581811115610d7557600080fd5b896020828501011115610d8757600080fd5b9699959850939650602001949392505050565b600060208284031215610dac57600080fd5b8135610db781610ce6565b9392505050565b60005b83811015610dd9578181015183820152602001610dc1565b50506000910152565b60008151808452610dfa816020860160208601610dbe565b601f01601f19169290920160200192915050565b60a081526000610e2160a0830188610de2565b8281036020840152610e338188610de2565b90508281036040840152610e478187610de2565b905084151560608401528281036080840152610e638185610de2565b98975050505050505050565b604080825283519082018190526000906020906060840190828701845b82811015610eb15781516001600160a01b031684529284019290840190600101610e8c565b50505092019290925292915050565b634e487b7160e01b600052604160045260246000fd5b6040516060810167ffffffffffffffff81118282101715610ef957610ef9610ec0565b60405290565b604051601f8201601f1916810167ffffffffffffffff81118282101715610f2857610f28610ec0565b604052919050565b600082601f830112610f4157600080fd5b815167ffffffffffffffff811115610f5b57610f5b610ec0565b610f6e601f8201601f1916602001610eff565b818152846020838601011115610f8357600080fd5b610f94826020830160208701610dbe565b949350505050565b600060208284031215610fae57600080fd5b815167ffffffffffffffff80821115610fc657600080fd5b9083019060608286031215610fda57600080fd5b610fe2610ed6565b825182811115610ff157600080fd5b610ffd87828601610f30565b82525060208301518281111561101257600080fd5b61101e87828601610f30565b60208301525060408301518281111561103657600080fd5b61104287828601610f30565b60408301525095945050505050565b600181811c9082168061106557607f821691505b60208210810361108557634e487b7160e01b600052602260045260246000fd5b50919050565b601f8211156110d557600081815260208120601f850160051c810160208610156110b25750805b601f850160051c820191505b818110156110d1578281556001016110be565b5050505b505050565b815167ffffffffffffffff8111156110f4576110f4610ec0565b611108816111028454611051565b8461108b565b602080601f83116001811461113d57600084156111255750858301515b600019600386901b1c1916600185901b1785556110d1565b600085815260208120601f198616915b8281101561116c5788860151825594840194600190910190840161114d565b508582101561118a5787850151600019600388901b60f8161c191681555b5050505050600190811b01905550565b6000600182016111ba57634e487b7160e01b600052601160045260246000fd5b5060010190565b60208082526031908201527f4f6e6c792074686520636f6e7472616374206465706c6f7965722063616e206360408201527030b636103a3434b990333ab731ba34b7b760791b606082015260800190565b6000806040838503121561122557600080fd5b825167ffffffffffffffff8082111561123d57600080fd5b818501915085601f83011261125157600080fd5b815160208282111561126557611265610ec0565b8160051b9250611276818401610eff565b828152928401810192818101908985111561129057600080fd5b948201945b848610156112ba57855193506112aa84610ce6565b8382529482019490820190611295565b97909101519698969750505050505050565b634e487b7160e01b600052603260045260246000fd5b602081526000610db76020830184610de256fea26469706673582212204d3df9630e0a09b2e0d682faf378028c2e4825e6d306ad677681d5af6619d97264736f6c63430008140033",
    "linkReferences": {}
  },
  "methodIdentifiers": {
    "acceptApplicant(address)": "582cba3e",
    "denyApplicant(address)": "7cc24b07",
    "getAssignedApplicants()": "79f7d458",
    "onERC721Received(address,address,uint256,bytes)": "150b7a02",
    "viewApplicant(address)": "19c7f0ae",
    "waitlistApplicant(address)": "b221110c"
  },
  "id": 3
}