{
  "abi": [
    {
      "inputs": [
        {
          "internalType": "uint256",
          "name": "_maxStudents",
          "type": "uint256"
        }
      ],
      "stateMutability": "nonpayable",
      "type": "constructor"
    },
    {
      "anonymous": false,
      "inputs": [
        {
          "indexed": true,
          "internalType": "address",
          "name": "applicant",
          "type": "address"
        },
        {
          "indexed": true,
          "internalType": "address",
          "name": "officer",
          "type": "address"
        }
      ],
      "name": "AdmissionsOfficerAssigned",
      "type": "event"
    },
    {
      "inputs": [
        {
          "internalType": "address",
          "name": "applicant",
          "type": "address"
        }
      ],
      "name": "addAcceptedApplicant",
      "outputs": [],
      "stateMutability": "nonpayable",
      "type": "function"
    },
    {
      "inputs": [
        {
          "internalType": "address",
          "name": "applicant",
          "type": "address"
        }
      ],
      "name": "addApplicant",
      "outputs": [],
      "stateMutability": "nonpayable",
      "type": "function"
    },
    {
      "inputs": [
        {
          "internalType": "address",
          "name": "applicant",
          "type": "address"
        }
      ],
      "name": "addDeniedApplicant",
      "outputs": [],
      "stateMutability": "nonpayable",
      "type": "function"
    },
    {
      "inputs": [
        {
          "internalType": "address",
          "name": "applicant",
          "type": "address"
        }
      ],
      "name": "addNewStudent",
      "outputs": [],
      "stateMutability": "nonpayable",
      "type": "function"
    },
    {
      "inputs": [
        {
          "internalType": "address",
          "name": "applicant",
          "type": "address"
        }
      ],
      "name": "addWaitlistedApplicant",
      "outputs": [],
      "stateMutability": "nonpayable",
      "type": "function"
    },
    {
      "inputs": [],
      "name": "assignAdmissionsOfficer",
      "outputs": [],
      "stateMutability": "nonpayable",
      "type": "function"
    },
    {
      "inputs": [],
      "name": "decreaseMaxStudents",
      "outputs": [],
      "stateMutability": "nonpayable",
      "type": "function"
    },
    {
      "inputs": [],
      "name": "getAcceptedApplicants",
      "outputs": [
        {
          "internalType": "uint256",
          "name": "",
          "type": "uint256"
        },
        {
          "internalType": "address[]",
          "name": "",
          "type": "address[]"
        }
      ],
      "stateMutability": "view",
      "type": "function"
    },
    {
      "inputs": [
        {
          "internalType": "address",
          "name": "applicant",
          "type": "address"
        }
      ],
      "name": "getAdmissionsOfficerForApplicant",
      "outputs": [
        {
          "internalType": "address",
          "name": "",
          "type": "address"
        }
      ],
      "stateMutability": "view",
      "type": "function"
    },
    {
      "inputs": [],
      "name": "getAdmissionsOfficers",
      "outputs": [
        {
          "internalType": "uint256",
          "name": "",
          "type": "uint256"
        },
        {
          "internalType": "address[]",
          "name": "",
          "type": "address[]"
        }
      ],
      "stateMutability": "view",
      "type": "function"
    },
    {
      "inputs": [
        {
          "internalType": "address",
          "name": "officerAddress",
          "type": "address"
        }
      ],
      "name": "getApplicantsForOfficer",
      "outputs": [
        {
          "internalType": "address[]",
          "name": "",
          "type": "address[]"
        },
        {
          "internalType": "uint256",
          "name": "",
          "type": "uint256"
        }
      ],
      "stateMutability": "view",
      "type": "function"
    },
    {
      "inputs": [],
      "name": "getAssignedApplicants",
      "outputs": [
        {
          "internalType": "uint256",
          "name": "",
          "type": "uint256"
        },
        {
          "internalType": "address[]",
          "name": "",
          "type": "address[]"
        }
      ],
      "stateMutability": "view",
      "type": "function"
    },
    {
      "inputs": [],
      "name": "getDeniedApplicants",
      "outputs": [
        {
          "internalType": "uint256",
          "name": "",
          "type": "uint256"
        },
        {
          "internalType": "address[]",
          "name": "",
          "type": "address[]"
        }
      ],
      "stateMutability": "view",
      "type": "function"
    },
    {
      "inputs": [],
      "name": "getDeployer",
      "outputs": [
        {
          "internalType": "address",
          "name": "",
          "type": "address"
        }
      ],
      "stateMutability": "view",
      "type": "function"
    },
    {
      "inputs": [],
      "name": "getMaxStudents",
      "outputs": [
        {
          "internalType": "uint256",
          "name": "",
          "type": "uint256"
        }
      ],
      "stateMutability": "view",
      "type": "function"
    },
    {
      "inputs": [],
      "name": "getNewStudents",
      "outputs": [
        {
          "internalType": "uint256",
          "name": "",
          "type": "uint256"
        },
        {
          "internalType": "address[]",
          "name": "",
          "type": "address[]"
        }
      ],
      "stateMutability": "view",
      "type": "function"
    },
    {
      "inputs": [],
      "name": "getUnassignedApplicants",
      "outputs": [
        {
          "internalType": "uint256",
          "name": "",
          "type": "uint256"
        },
        {
          "internalType": "address[]",
          "name": "",
          "type": "address[]"
        }
      ],
      "stateMutability": "view",
      "type": "function"
    },
    {
      "inputs": [],
      "name": "getWaitlistedApplicants",
      "outputs": [
        {
          "internalType": "uint256",
          "name": "",
          "type": "uint256"
        },
        {
          "internalType": "address[]",
          "name": "",
          "type": "address[]"
        }
      ],
      "stateMutability": "view",
      "type": "function"
    },
    {
      "inputs": [
        {
          "internalType": "address",
          "name": "officer",
          "type": "address"
        }
      ],
      "name": "isAdmissionsOfficer",
      "outputs": [
        {
          "internalType": "bool",
          "name": "",
          "type": "bool"
        }
      ],
      "stateMutability": "view",
      "type": "function"
    },
    {
      "inputs": [
        {
          "internalType": "address",
          "name": "account",
          "type": "address"
        }
      ],
      "name": "isApplicant",
      "outputs": [
        {
          "internalType": "bool",
          "name": "",
          "type": "bool"
        }
      ],
      "stateMutability": "view",
      "type": "function"
    },
    {
      "inputs": [
        {
          "internalType": "address",
          "name": "officerAddress",
          "type": "address"
        }
      ],
      "name": "registerOfficer",
      "outputs": [],
      "stateMutability": "nonpayable",
      "type": "function"
    },
    {
      "inputs": [
        {
          "internalType": "address",
          "name": "applicant",
          "type": "address"
        }
      ],
      "name": "removeAcceptedApplicant",
      "outputs": [],
      "stateMutability": "nonpayable",
      "type": "function"
    },
    {
      "inputs": [
        {
          "internalType": "address",
          "name": "officerAddress",
          "type": "address"
        },
        {
          "internalType": "address",
          "name": "applicantAddress",
          "type": "address"
        }
      ],
      "name": "removeAssignedApplicant",
      "outputs": [],
      "stateMutability": "nonpayable",
      "type": "function"
    }
  ],
  "bytecode": {
    "object": "0x608060405234801561001057600080fd5b5060405161161838038061161883398101604081905261002f91610049565b600855600080546001600160a01b03191633179055610062565b60006020828403121561005b57600080fd5b5051919050565b6115a7806100716000396000f3fe608060405234801561001057600080fd5b506004361061014c5760003560e01c80639b6a635b116100c3578063d84d2e841161007c578063d84d2e841461028d578063d95ef2a7146102b0578063e311f095146102d1578063f4310d49146102d9578063f505637414610308578063f8af156c1461031057600080fd5b80639b6a635b1461023c578063aa7b7f8b14610244578063b5accd601461024c578063b62f1ec31461025f578063c3b6846314610272578063ceec06b81461027a57600080fd5b8063453d9df411610115578063453d9df4146101a65780636ebf2242146101ea57806372630531146101fd57806379f7d4581461020e57806389652507146102165780639aca29041461022957600080fd5b8062d04c7e1461015157806302756b2914610170578063027eaa671461018557806312eda5a01461019657806327cc3da41461019e575b600080fd5b610159610323565b6040516101679291906113b1565b60405180910390f35b61018361017e3660046113ee565b610393565b005b600854604051908152602001610167565b610183610428565b610159610732565b6101d26101b43660046113ee565b6001600160a01b039081166000908152600960205260409020541690565b6040516001600160a01b039091168152602001610167565b6101836101f83660046113ee565b6107a0565b6000546001600160a01b03166101d2565b61015961086d565b6101836102243660046113ee565b6108db565b6101836102373660046113ee565b610967565b6101596109f3565b610159610a61565b61018361025a366004611409565b610acf565b61018361026d3660046113ee565b610c42565b610183610d66565b6101836102883660046113ee565b610dd2565b6102a061029b3660046113ee565b610f0c565b6040519015158152602001610167565b6102c36102be3660046113ee565b610f2d565b60405161016792919061143c565b610159610fae565b6102a06102e73660046113ee565b6001600160a01b03166000908152600a602052604090205460ff1660011490565b61015961101c565b61018361031e3660046113ee565b61108a565b6000606060018054905060018080548060200260200160405190810160405280929190818152602001828054801561038457602002820191906000526020600020905b81546001600160a01b03168152600190910190602001808311610366575b50505050509050915091509091565b61039c33610f0c565b806103b157506000546001600160a01b031633145b6103d65760405162461bcd60e51b81526004016103cd9061145e565b60405180910390fd5b600580546001810182556000919091527f036b6384b5eca791c62761152d0c79bb0604c104a5fb6f4eb0703f3154bb3db00180546001600160a01b0319166001600160a01b0392909216919091179055565b61043133610f0c565b8061044657506000546001600160a01b031633145b6104625760405162461bcd60e51b81526004016103cd9061145e565b6001546104b15760405162461bcd60e51b815260206004820152601d60248201527f4e6f20756e61737369676e6564206170706c6963616e7473206c65667400000060448201526064016103cd565b600854600454106105175760405162461bcd60e51b815260206004820152602a60248201527f4d6178696d756d206e756d626572206f662073747564656e747320616c726561604482015269191e481c995858da195960b21b60648201526084016103cd565b6003546105665760405162461bcd60e51b815260206004820181905260248201527f4e6f2061646d697373696f6e73206f6666696365727320746f2061737369676e60448201526064016103cd565b60005b60035481101561067857600354600090610582906110ef565b9050600060038381548110610599576105996114c8565b600091825260209091200154600380546001600160a01b03909216925090839081106105c7576105c76114c8565b600091825260209091200154600380546001600160a01b0390921691859081106105f3576105f36114c8565b9060005260206000200160006101000a8154816001600160a01b0302191690836001600160a01b031602179055508060038381548110610635576106356114c8565b9060005260206000200160006101000a8154816001600160a01b0302191690836001600160a01b0316021790555050508080610670906114f4565b915050610569565b5060005b6001541561072f57600180546000919061069790829061150d565b815481106106a7576106a76114c8565b6000918252602082200154600380546001600160a01b03909216935090849081106106d4576106d46114c8565b6000918252602090912001546001600160a01b031690506106f58282611155565b6001805461070e919061070990829061150d565b61120a565b60035461071c846001611526565b6107269190611539565b9250505061067c565b50565b60006060600380549050600380805480602002602001604051908101604052809291908181526020018280548015610384576020028201919060005260206000209081546001600160a01b031681526001909101906020018083116103665750505050509050915091509091565b6001600160a01b0381166000908152600a602052604090205460ff16156108095760405162461bcd60e51b815260206004820152601d60248201527f4164647265737320697320616c7265616479207265676973746572656400000060448201526064016103cd565b6001805480820182557fb10e2d527612073b26eecdfd717e6a320cf44b4afac2b0732d9fcbe2b7fa0cf60180546001600160a01b039093166001600160a01b0319909316831790556000918252600a6020526040909120805460ff19169091179055565b60006060600280549050600280805480602002602001604051908101604052809291908181526020018280548015610384576020028201919060005260206000209081546001600160a01b031681526001909101906020018083116103665750505050509050915091509091565b6108e433610f0c565b806108f957506000546001600160a01b031633145b6109155760405162461bcd60e51b81526004016103cd9061145e565b600680546001810182556000919091527ff652222313e28459528d920b65115c16c04f3efc82aaedc97be59f3f377c0d3f0180546001600160a01b0319166001600160a01b0392909216919091179055565b61097033610f0c565b8061098557506000546001600160a01b031633145b6109a15760405162461bcd60e51b81526004016103cd9061145e565b600780546001810182556000919091527fa66cc928b5edb82af9bd49922954155ab7b0942694bea4ce44661d9a8736c6880180546001600160a01b0319166001600160a01b0392909216919091179055565b60006060600680549050600680805480602002602001604051908101604052809291908181526020018280548015610384576020028201919060005260206000209081546001600160a01b031681526001909101906020018083116103665750505050509050915091509091565b60006060600580549050600580805480602002602001604051908101604052809291908181526020018280548015610384576020028201919060005260206000209081546001600160a01b031681526001909101906020018083116103665750505050509050915091509091565b6001600160a01b0382166000908152600b60205260408120805490915b8254811015610b4557836001600160a01b0316838281548110610b1157610b116114c8565b6000918252602090912001546001600160a01b031603610b3357809150610b45565b80610b3d816114f4565b915050610aec565b5081548110610b8c5760405162461bcd60e51b8152602060048201526013602482015272105c1c1b1a58d85b9d081b9bdd08199bdd5b99606a1b60448201526064016103cd565b81548290610b9c9060019061150d565b81548110610bac57610bac6114c8565b9060005260206000200160009054906101000a90046001600160a01b0316828281548110610bdc57610bdc6114c8565b9060005260206000200160006101000a8154816001600160a01b0302191690836001600160a01b0316021790555081805480610c1a57610c1a61155b565b600082815260209020810160001990810180546001600160a01b031916905501905550505050565b6001600160a01b0381811660009081526009602052604090205416610cbf5760405162461bcd60e51b815260206004820152602d60248201527f4170706c6963616e7420686173206e6f74206265656e2061737369676e65642060448201526c3a379030b71037b33334b1b2b960991b60648201526084016103cd565b610cc881611304565b610d145760405162461bcd60e51b815260206004820152601f60248201527f4170706c6963616e7420686173206e6f74206265656e2061636365707465640060448201526064016103cd565b600480546001810182556000919091527f8a35acfbc15ff81a39ae7d344fd709f28e8600b4aa8c65c6b64bfe7fe36bd19b0180546001600160a01b0319166001600160a01b0392909216919091179055565b600060085411610db85760405162461bcd60e51b815260206004820152601c60248201527f4d61782073747564656e747320616c7265616479206174207a65726f0000000060448201526064016103cd565b600160086000828254610dcb919061150d565b9091555050565b336001600160a01b03821614610e405760405162461bcd60e51b815260206004820152602d60248201527f4f6e6c7920746865204f66666963657220636f6e74726163742063616e20726560448201526c33b4b9ba32b91034ba39b2b63360991b60648201526084016103cd565b6001600160a01b0381166000908152600a602052604090205460ff1615610ea95760405162461bcd60e51b815260206004820152601d60248201527f4f66666963657220697320616c7265616479207265676973746572656400000060448201526064016103cd565b6001600160a01b03166000818152600a60205260408120805460ff191660021790556003805460018101825591527fc2575a0e9e593c00f959f8c92f12db2869c3395a3b0502d05e2516446f71f85b0180546001600160a01b0319169091179055565b6001600160a01b03166000908152600a602052604090205460ff1660021490565b6001600160a01b0381166000908152600b602090815260408083208054825181850281018501909352808352606094938493929190830182828015610f9b57602002820191906000526020600020905b81546001600160a01b03168152600190910190602001808311610f7d575b5050835193989397509295505050505050565b60006060600480549050600480805480602002602001604051908101604052809291908181526020018280548015610384576020028201919060005260206000209081546001600160a01b031681526001909101906020018083116103665750505050509050915091509091565b60006060600780549050600780805480602002602001604051908101604052809291908181526020018280548015610384576020028201919060005260206000209081546001600160a01b031681526001909101906020018083116103665750505050509050915091509091565b60005b6005548110156110d957816001600160a01b0316600582815481106110b4576110b46114c8565b6000918252602090912001546001600160a01b0316036110dd576110d960058261120a565b5050565b806110e7816114f4565b91505061108d565b6000808242443360405160200161112b93929190928352602083019190915260601b6bffffffffffffffffffffffff1916604082015260540190565b6040516020818303038152906040528051906020012060001c61114e9190611539565b9392505050565b6001600160a01b03808316600081815260096020908152604080832080549587166001600160a01b031996871681179091556002805460018181019092557f405787fa12a823e0f2b7631cc41b3ba8828b3321ca811111fa75cd3aa3bb5ace018054881687179055818552600b84528285208054918201815585529284209092018054909516841790945592517f703a50bddca43da2aa40ae2d054e4381266c12789c71c27cdfc76bba944a4eba9190a35050565b815481106112505760405162461bcd60e51b8152602060048201526013602482015272496e646578206f7574206f6620626f756e647360681b60448201526064016103cd565b815482906112609060019061150d565b81548110611270576112706114c8565b9060005260206000200160009054906101000a90046001600160a01b03168282815481106112a0576112a06114c8565b9060005260206000200160006101000a8154816001600160a01b0302191690836001600160a01b03160217905550818054806112de576112de61155b565b600082815260209020810160001990810180546001600160a01b03191690550190555050565b6000805b60055481101561136457826001600160a01b03166005828154811061132f5761132f6114c8565b6000918252602090912001546001600160a01b0316036113525750600192915050565b8061135c816114f4565b915050611308565b50600092915050565b600081518084526020808501945080840160005b838110156113a65781516001600160a01b031687529582019590820190600101611381565b509495945050505050565b8281526040602082015260006113ca604083018461136d565b949350505050565b80356001600160a01b03811681146113e957600080fd5b919050565b60006020828403121561140057600080fd5b61114e826113d2565b6000806040838503121561141c57600080fd5b611425836113d2565b9150611433602084016113d2565b90509250929050565b60408152600061144f604083018561136d565b90508260208301529392505050565b60208082526044908201527f4f6e6c7920617070726f7665642061646d697373696f6e73206f66666963657260408201527f73206f72206465706c6f7965722063616e2063616c6c20746869732066756e636060820152633a34b7b760e11b608082015260a00190565b634e487b7160e01b600052603260045260246000fd5b634e487b7160e01b600052601160045260246000fd5b600060018201611506576115066114de565b5060010190565b81810381811115611520576115206114de565b92915050565b80820180821115611520576115206114de565b60008261155657634e487b7160e01b600052601260045260246000fd5b500690565b634e487b7160e01b600052603160045260246000fdfea2646970667358221220752e26a5a1b417ed73567e69aa930923cff4bdac9e57a130c06191533bbbb4c564736f6c63430008140033",
    "linkReferences": {}
  },
  "methodIdentifiers": {
    "addAcceptedApplicant(address)": "02756b29",
    "addApplicant(address)": "6ebf2242",
    "addDeniedApplicant(address)": "9aca2904",
    "addNewStudent(address)": "b62f1ec3",
    "addWaitlistedApplicant(address)": "89652507",
    "assignAdmissionsOfficer()": "12eda5a0",
    "decreaseMaxStudents()": "c3b68463",
    "getAcceptedApplicants()": "aa7b7f8b",
    "getAdmissionsOfficerForApplicant(address)": "453d9df4",
    "getAdmissionsOfficers()": "27cc3da4",
    "getApplicantsForOfficer(address)": "d95ef2a7",
    "getAssignedApplicants()": "79f7d458",
    "getDeniedApplicants()": "f5056374",
    "getDeployer()": "72630531",
    "getMaxStudents()": "027eaa67",
    "getNewStudents()": "e311f095",
    "getUnassignedApplicants()": "00d04c7e",
    "getWaitlistedApplicants()": "9b6a635b",
    "isAdmissionsOfficer(address)": "d84d2e84",
    "isApplicant(address)": "f4310d49",
    "registerOfficer(address)": "ceec06b8",
    "removeAcceptedApplicant(address)": "f8af156c",
    "removeAssignedApplicant(address,address)": "b5accd60"
  },
  "id": 2
}