{
	"contracts/universityContracts/admissionsOffice.sol": {
		"AdmissionsOffice": {
			"abi": [
				{
					"inputs": [
						{
							"internalType": "uint256",
							"name": "_maxStudents",
							"type": "uint256"
						}
					],
					"stateMutability": "nonpayable",
					"type": "constructor"
				},
				{
					"inputs": [
						{
							"internalType": "address",
							"name": "student",
							"type": "address"
						}
					],
					"name": "addStudent",
					"outputs": [],
					"stateMutability": "nonpayable",
					"type": "function"
				},
				{
					"inputs": [
						{
							"internalType": "address",
							"name": "officer",
							"type": "address"
						}
					],
					"name": "approveAdmissionsOfficer",
					"outputs": [],
					"stateMutability": "nonpayable",
					"type": "function"
				},
				{
					"inputs": [],
					"name": "getStudents",
					"outputs": [
						{
							"internalType": "uint256",
							"name": "",
							"type": "uint256"
						},
						{
							"internalType": "address[]",
							"name": "",
							"type": "address[]"
						}
					],
					"stateMutability": "view",
					"type": "function"
				},
				{
					"stateMutability": "payable",
					"type": "receive"
				}
			],
			"devdoc": {
				"kind": "dev",
				"methods": {},
				"version": 1
			},
			"evm": {
				"assembly": "    /* \"contracts/universityContracts/admissionsOffice.sol\":57:1129  contract AdmissionsOffice {... */\n  mstore(0x40, 0x80)\n    /* \"contracts/universityContracts/admissionsOffice.sol\":220:297  constructor(uint256 _maxStudents) {... */\n  callvalue\n  dup1\n  iszero\n  tag_1\n  jumpi\n  0x00\n  dup1\n  revert\ntag_1:\n  pop\n  mload(0x40)\n  sub(codesize, bytecodeSize)\n  dup1\n  bytecodeSize\n  dup4\n  codecopy\n  dup2\n  dup2\n  add\n  0x40\n  mstore\n  dup2\n  add\n  swap1\n  tag_2\n  swap2\n  swap1\n  tag_3\n  jump\t// in\ntag_2:\n    /* \"contracts/universityContracts/admissionsOffice.sol\":278:290  _maxStudents */\n  dup1\n    /* \"contracts/universityContracts/admissionsOffice.sol\":264:275  maxStudents */\n  0x02\n    /* \"contracts/universityContracts/admissionsOffice.sol\":264:290  maxStudents = _maxStudents */\n  dup2\n  swap1\n  sstore\n  pop\n    /* \"contracts/universityContracts/admissionsOffice.sol\":220:297  constructor(uint256 _maxStudents) {... */\n  pop\n    /* \"contracts/universityContracts/admissionsOffice.sol\":57:1129  contract AdmissionsOffice {... */\n  jump(tag_6)\n    /* \"#utility.yul\":88:205   */\ntag_8:\n    /* \"#utility.yul\":197:198   */\n  0x00\n    /* \"#utility.yul\":194:195   */\n  dup1\n    /* \"#utility.yul\":187:199   */\n  revert\n    /* \"#utility.yul\":334:411   */\ntag_10:\n    /* \"#utility.yul\":371:378   */\n  0x00\n    /* \"#utility.yul\":400:405   */\n  dup2\n    /* \"#utility.yul\":389:405   */\n  swap1\n  pop\n    /* \"#utility.yul\":334:411   */\n  swap2\n  swap1\n  pop\n  jump\t// out\n    /* \"#utility.yul\":417:539   */\ntag_11:\n    /* \"#utility.yul\":490:514   */\n  tag_19\n    /* \"#utility.yul\":508:513   */\n  dup2\n    /* \"#utility.yul\":490:514   */\n  tag_10\n  jump\t// in\ntag_19:\n    /* \"#utility.yul\":483:488   */\n  dup2\n    /* \"#utility.yul\":480:515   */\n  eq\n    /* \"#utility.yul\":470:533   */\n  tag_20\n  jumpi\n    /* \"#utility.yul\":529:530   */\n  0x00\n    /* \"#utility.yul\":526:527   */\n  dup1\n    /* \"#utility.yul\":519:531   */\n  revert\n    /* \"#utility.yul\":470:533   */\ntag_20:\n    /* \"#utility.yul\":417:539   */\n  pop\n  jump\t// out\n    /* \"#utility.yul\":545:688   */\ntag_12:\n    /* \"#utility.yul\":602:607   */\n  0x00\n    /* \"#utility.yul\":633:639   */\n  dup2\n    /* \"#utility.yul\":627:640   */\n  mload\n    /* \"#utility.yul\":618:640   */\n  swap1\n  pop\n    /* \"#utility.yul\":649:682   */\n  tag_22\n    /* \"#utility.yul\":676:681   */\n  dup2\n    /* \"#utility.yul\":649:682   */\n  tag_11\n  jump\t// in\ntag_22:\n    /* \"#utility.yul\":545:688   */\n  swap3\n  swap2\n  pop\n  pop\n  jump\t// out\n    /* \"#utility.yul\":694:1045   */\ntag_3:\n    /* \"#utility.yul\":764:770   */\n  0x00\n    /* \"#utility.yul\":813:815   */\n  0x20\n    /* \"#utility.yul\":801:810   */\n  dup3\n    /* \"#utility.yul\":792:799   */\n  dup5\n    /* \"#utility.yul\":788:811   */\n  sub\n    /* \"#utility.yul\":784:816   */\n  slt\n    /* \"#utility.yul\":781:900   */\n  iszero\n  tag_24\n  jumpi\n    /* \"#utility.yul\":819:898   */\n  tag_25\n  tag_8\n  jump\t// in\ntag_25:\n    /* \"#utility.yul\":781:900   */\ntag_24:\n    /* \"#utility.yul\":939:940   */\n  0x00\n    /* \"#utility.yul\":964:1028   */\n  tag_26\n    /* \"#utility.yul\":1020:1027   */\n  dup5\n    /* \"#utility.yul\":1011:1017   */\n  dup3\n    /* \"#utility.yul\":1000:1009   */\n  dup6\n    /* \"#utility.yul\":996:1018   */\n  add\n    /* \"#utility.yul\":964:1028   */\n  tag_12\n  jump\t// in\ntag_26:\n    /* \"#utility.yul\":954:1028   */\n  swap2\n  pop\n    /* \"#utility.yul\":910:1038   */\n  pop\n    /* \"#utility.yul\":694:1045   */\n  swap3\n  swap2\n  pop\n  pop\n  jump\t// out\n    /* \"contracts/universityContracts/admissionsOffice.sol\":57:1129  contract AdmissionsOffice {... */\ntag_6:\n  dataSize(sub_0)\n  dup1\n  dataOffset(sub_0)\n  0x00\n  codecopy\n  0x00\n  return\nstop\n\nsub_0: assembly {\n        /* \"contracts/universityContracts/admissionsOffice.sol\":57:1129  contract AdmissionsOffice {... */\n      mstore(0x40, 0x80)\n      jumpi(tag_1, lt(calldatasize, 0x04))\n      shr(0xe0, calldataload(0x00))\n      dup1\n      0xbd06ea19\n      eq\n      tag_3\n      jumpi\n      dup1\n      0xf1d064b3\n      eq\n      tag_4\n      jumpi\n      dup1\n      0xf725aa25\n      eq\n      tag_5\n      jumpi\n      jump(tag_2)\n    tag_1:\n      jumpi(tag_2, calldatasize)\n      stop\n    tag_2:\n      0x00\n      dup1\n      revert\n        /* \"contracts/universityContracts/admissionsOffice.sol\":897:980  function addStudent(address student) public {... */\n    tag_3:\n      callvalue\n      dup1\n      iszero\n      tag_8\n      jumpi\n      0x00\n      dup1\n      revert\n    tag_8:\n      pop\n      tag_9\n      0x04\n      dup1\n      calldatasize\n      sub\n      dup2\n      add\n      swap1\n      tag_10\n      swap2\n      swap1\n      tag_11\n      jump\t// in\n    tag_10:\n      tag_12\n      jump\t// in\n    tag_9:\n      stop\n        /* \"contracts/universityContracts/admissionsOffice.sol\":571:888  function getStudents() external view returns (uint256, address[] memory) {... */\n    tag_4:\n      callvalue\n      dup1\n      iszero\n      tag_13\n      jumpi\n      0x00\n      dup1\n      revert\n    tag_13:\n      pop\n      tag_14\n      tag_15\n      jump\t// in\n    tag_14:\n      mload(0x40)\n      tag_16\n      swap3\n      swap2\n      swap1\n      tag_17\n      jump\t// in\n    tag_16:\n      mload(0x40)\n      dup1\n      swap2\n      sub\n      swap1\n      return\n        /* \"contracts/universityContracts/admissionsOffice.sol\":986:1127  function approveAdmissionsOfficer(address officer) external onlyAdmissionsOfficer {... */\n    tag_5:\n      callvalue\n      dup1\n      iszero\n      tag_18\n      jumpi\n      0x00\n      dup1\n      revert\n    tag_18:\n      pop\n      tag_19\n      0x04\n      dup1\n      calldatasize\n      sub\n      dup2\n      add\n      swap1\n      tag_20\n      swap2\n      swap1\n      tag_11\n      jump\t// in\n    tag_20:\n      tag_21\n      jump\t// in\n    tag_19:\n      stop\n        /* \"contracts/universityContracts/admissionsOffice.sol\":897:980  function addStudent(address student) public {... */\n    tag_12:\n        /* \"contracts/universityContracts/admissionsOffice.sol\":951:959  students */\n      0x00\n        /* \"contracts/universityContracts/admissionsOffice.sol\":965:972  student */\n      dup2\n        /* \"contracts/universityContracts/admissionsOffice.sol\":951:973  students.push(student) */\n      swap1\n      dup1\n      0x01\n      dup2\n      sload\n      add\n      dup1\n      dup3\n      sstore\n      dup1\n      swap2\n      pop\n      pop\n      0x01\n      swap1\n      sub\n      swap1\n      0x00\n      mstore\n      keccak256(0x00, 0x20)\n      add\n      0x00\n      swap1\n      swap2\n      swap1\n      swap2\n      swap1\n      swap2\n      0x0100\n      exp\n      dup2\n      sload\n      dup2\n      0xffffffffffffffffffffffffffffffffffffffff\n      mul\n      not\n      and\n      swap1\n      dup4\n      0xffffffffffffffffffffffffffffffffffffffff\n      and\n      mul\n      or\n      swap1\n      sstore\n      pop\n        /* \"contracts/universityContracts/admissionsOffice.sol\":897:980  function addStudent(address student) public {... */\n      pop\n      jump\t// out\n        /* \"contracts/universityContracts/admissionsOffice.sol\":571:888  function getStudents() external view returns (uint256, address[] memory) {... */\n    tag_15:\n        /* \"contracts/universityContracts/admissionsOffice.sol\":617:624  uint256 */\n      0x00\n        /* \"contracts/universityContracts/admissionsOffice.sol\":626:642  address[] memory */\n      0x60\n        /* \"contracts/universityContracts/admissionsOffice.sol\":654:687  address[] memory studentAddresses */\n      0x00\n        /* \"contracts/universityContracts/admissionsOffice.sol\":704:712  students */\n      dup1\n        /* \"contracts/universityContracts/admissionsOffice.sol\":704:719  students.length */\n      dup1\n      sload\n      swap1\n      pop\n        /* \"contracts/universityContracts/admissionsOffice.sol\":690:720  new address[](students.length) */\n      0xffffffffffffffff\n      dup2\n      gt\n      iszero\n      tag_25\n      jumpi\n      tag_26\n      tag_27\n      jump\t// in\n    tag_26:\n    tag_25:\n      mload(0x40)\n      swap1\n      dup1\n      dup3\n      mstore\n      dup1\n      0x20\n      mul\n      0x20\n      add\n      dup3\n      add\n      0x40\n      mstore\n      dup1\n      iszero\n      tag_28\n      jumpi\n      dup2\n      0x20\n      add\n      0x20\n      dup3\n      mul\n      dup1\n      calldatasize\n      dup4\n      calldatacopy\n      dup1\n      dup3\n      add\n      swap2\n      pop\n      pop\n      swap1\n      pop\n    tag_28:\n      pop\n        /* \"contracts/universityContracts/admissionsOffice.sol\":654:720  address[] memory studentAddresses = new address[](students.length) */\n      swap1\n      pop\n        /* \"contracts/universityContracts/admissionsOffice.sol\":735:744  uint256 i */\n      0x00\n        /* \"contracts/universityContracts/admissionsOffice.sol\":730:834  for (uint256 i = 0; i < students.length; i++) {... */\n    tag_29:\n        /* \"contracts/universityContracts/admissionsOffice.sol\":754:762  students */\n      0x00\n        /* \"contracts/universityContracts/admissionsOffice.sol\":754:769  students.length */\n      dup1\n      sload\n      swap1\n      pop\n        /* \"contracts/universityContracts/admissionsOffice.sol\":750:751  i */\n      dup2\n        /* \"contracts/universityContracts/admissionsOffice.sol\":750:769  i < students.length */\n      lt\n        /* \"contracts/universityContracts/admissionsOffice.sol\":730:834  for (uint256 i = 0; i < students.length; i++) {... */\n      iszero\n      tag_30\n      jumpi\n        /* \"contracts/universityContracts/admissionsOffice.sol\":812:820  students */\n      0x00\n        /* \"contracts/universityContracts/admissionsOffice.sol\":821:822  i */\n      dup2\n        /* \"contracts/universityContracts/admissionsOffice.sol\":812:823  students[i] */\n      dup2\n      sload\n      dup2\n      lt\n      tag_32\n      jumpi\n      tag_33\n      tag_34\n      jump\t// in\n    tag_33:\n    tag_32:\n      swap1\n      0x00\n      mstore\n      keccak256(0x00, 0x20)\n      add\n      0x00\n      swap1\n      sload\n      swap1\n      0x0100\n      exp\n      swap1\n      div\n      0xffffffffffffffffffffffffffffffffffffffff\n      and\n        /* \"contracts/universityContracts/admissionsOffice.sol\":790:806  studentAddresses */\n      dup3\n        /* \"contracts/universityContracts/admissionsOffice.sol\":807:808  i */\n      dup3\n        /* \"contracts/universityContracts/admissionsOffice.sol\":790:809  studentAddresses[i] */\n      dup2\n      mload\n      dup2\n      lt\n      tag_36\n      jumpi\n      tag_37\n      tag_34\n      jump\t// in\n    tag_37:\n    tag_36:\n      0x20\n      mul\n      0x20\n      add\n      add\n        /* \"contracts/universityContracts/admissionsOffice.sol\":790:823  studentAddresses[i] = students[i] */\n      swap1\n      0xffffffffffffffffffffffffffffffffffffffff\n      and\n      swap1\n      dup2\n      0xffffffffffffffffffffffffffffffffffffffff\n      and\n      dup2\n      mstore\n      pop\n      pop\n        /* \"contracts/universityContracts/admissionsOffice.sol\":771:774  i++ */\n      dup1\n      dup1\n      tag_38\n      swap1\n      tag_39\n      jump\t// in\n    tag_38:\n      swap2\n      pop\n      pop\n        /* \"contracts/universityContracts/admissionsOffice.sol\":730:834  for (uint256 i = 0; i < students.length; i++) {... */\n      jump(tag_29)\n    tag_30:\n      pop\n        /* \"contracts/universityContracts/admissionsOffice.sol\":851:859  students */\n      0x00\n        /* \"contracts/universityContracts/admissionsOffice.sol\":851:866  students.length */\n      dup1\n      sload\n      swap1\n      pop\n        /* \"contracts/universityContracts/admissionsOffice.sol\":868:884  studentAddresses */\n      dup2\n        /* \"contracts/universityContracts/admissionsOffice.sol\":843:885  return (students.length, studentAddresses) */\n      swap3\n      pop\n      swap3\n      pop\n      pop\n        /* \"contracts/universityContracts/admissionsOffice.sol\":571:888  function getStudents() external view returns (uint256, address[] memory) {... */\n      swap1\n      swap2\n      jump\t// out\n        /* \"contracts/universityContracts/admissionsOffice.sol\":986:1127  function approveAdmissionsOfficer(address officer) external onlyAdmissionsOfficer {... */\n    tag_21:\n        /* \"contracts/universityContracts/admissionsOffice.sol\":448:474  approvedAdmissionsOfficers */\n      0x01\n        /* \"contracts/universityContracts/admissionsOffice.sol\":448:486  approvedAdmissionsOfficers[msg.sender] */\n      0x00\n        /* \"contracts/universityContracts/admissionsOffice.sol\":475:485  msg.sender */\n      caller\n        /* \"contracts/universityContracts/admissionsOffice.sol\":448:486  approvedAdmissionsOfficers[msg.sender] */\n      0xffffffffffffffffffffffffffffffffffffffff\n      and\n      0xffffffffffffffffffffffffffffffffffffffff\n      and\n      dup2\n      mstore\n      0x20\n      add\n      swap1\n      dup2\n      mstore\n      0x20\n      add\n      0x00\n      keccak256\n      0x00\n      swap1\n      sload\n      swap1\n      0x0100\n      exp\n      swap1\n      div\n      0xff\n      and\n        /* \"contracts/universityContracts/admissionsOffice.sol\":440:547  require(approvedAdmissionsOfficers[msg.sender], \"Only approved admissions officers can call this function\") */\n      tag_41\n      jumpi\n      mload(0x40)\n      0x08c379a000000000000000000000000000000000000000000000000000000000\n      dup2\n      mstore\n      0x04\n      add\n      tag_42\n      swap1\n      tag_43\n      jump\t// in\n    tag_42:\n      mload(0x40)\n      dup1\n      swap2\n      sub\n      swap1\n      revert\n    tag_41:\n        /* \"contracts/universityContracts/admissionsOffice.sol\":1116:1120  true */\n      0x01\n        /* \"contracts/universityContracts/admissionsOffice.sol\":1078:1104  approvedAdmissionsOfficers */\n      dup1\n        /* \"contracts/universityContracts/admissionsOffice.sol\":1078:1113  approvedAdmissionsOfficers[officer] */\n      0x00\n        /* \"contracts/universityContracts/admissionsOffice.sol\":1105:1112  officer */\n      dup4\n        /* \"contracts/universityContracts/admissionsOffice.sol\":1078:1113  approvedAdmissionsOfficers[officer] */\n      0xffffffffffffffffffffffffffffffffffffffff\n      and\n      0xffffffffffffffffffffffffffffffffffffffff\n      and\n      dup2\n      mstore\n      0x20\n      add\n      swap1\n      dup2\n      mstore\n      0x20\n      add\n      0x00\n      keccak256\n      0x00\n        /* \"contracts/universityContracts/admissionsOffice.sol\":1078:1120  approvedAdmissionsOfficers[officer] = true */\n      0x0100\n      exp\n      dup2\n      sload\n      dup2\n      0xff\n      mul\n      not\n      and\n      swap1\n      dup4\n      iszero\n      iszero\n      mul\n      or\n      swap1\n      sstore\n      pop\n        /* \"contracts/universityContracts/admissionsOffice.sol\":986:1127  function approveAdmissionsOfficer(address officer) external onlyAdmissionsOfficer {... */\n      pop\n      jump\t// out\n        /* \"#utility.yul\":88:205   */\n    tag_46:\n        /* \"#utility.yul\":197:198   */\n      0x00\n        /* \"#utility.yul\":194:195   */\n      dup1\n        /* \"#utility.yul\":187:199   */\n      revert\n        /* \"#utility.yul\":334:460   */\n    tag_48:\n        /* \"#utility.yul\":371:378   */\n      0x00\n        /* \"#utility.yul\":411:453   */\n      0xffffffffffffffffffffffffffffffffffffffff\n        /* \"#utility.yul\":404:409   */\n      dup3\n        /* \"#utility.yul\":400:454   */\n      and\n        /* \"#utility.yul\":389:454   */\n      swap1\n      pop\n        /* \"#utility.yul\":334:460   */\n      swap2\n      swap1\n      pop\n      jump\t// out\n        /* \"#utility.yul\":466:562   */\n    tag_49:\n        /* \"#utility.yul\":503:510   */\n      0x00\n        /* \"#utility.yul\":532:556   */\n      tag_71\n        /* \"#utility.yul\":550:555   */\n      dup3\n        /* \"#utility.yul\":532:556   */\n      tag_48\n      jump\t// in\n    tag_71:\n        /* \"#utility.yul\":521:556   */\n      swap1\n      pop\n        /* \"#utility.yul\":466:562   */\n      swap2\n      swap1\n      pop\n      jump\t// out\n        /* \"#utility.yul\":568:690   */\n    tag_50:\n        /* \"#utility.yul\":641:665   */\n      tag_73\n        /* \"#utility.yul\":659:664   */\n      dup2\n        /* \"#utility.yul\":641:665   */\n      tag_49\n      jump\t// in\n    tag_73:\n        /* \"#utility.yul\":634:639   */\n      dup2\n        /* \"#utility.yul\":631:666   */\n      eq\n        /* \"#utility.yul\":621:684   */\n      tag_74\n      jumpi\n        /* \"#utility.yul\":680:681   */\n      0x00\n        /* \"#utility.yul\":677:678   */\n      dup1\n        /* \"#utility.yul\":670:682   */\n      revert\n        /* \"#utility.yul\":621:684   */\n    tag_74:\n        /* \"#utility.yul\":568:690   */\n      pop\n      jump\t// out\n        /* \"#utility.yul\":696:835   */\n    tag_51:\n        /* \"#utility.yul\":742:747   */\n      0x00\n        /* \"#utility.yul\":780:786   */\n      dup2\n        /* \"#utility.yul\":767:787   */\n      calldataload\n        /* \"#utility.yul\":758:787   */\n      swap1\n      pop\n        /* \"#utility.yul\":796:829   */\n      tag_76\n        /* \"#utility.yul\":823:828   */\n      dup2\n        /* \"#utility.yul\":796:829   */\n      tag_50\n      jump\t// in\n    tag_76:\n        /* \"#utility.yul\":696:835   */\n      swap3\n      swap2\n      pop\n      pop\n      jump\t// out\n        /* \"#utility.yul\":841:1170   */\n    tag_11:\n        /* \"#utility.yul\":900:906   */\n      0x00\n        /* \"#utility.yul\":949:951   */\n      0x20\n        /* \"#utility.yul\":937:946   */\n      dup3\n        /* \"#utility.yul\":928:935   */\n      dup5\n        /* \"#utility.yul\":924:947   */\n      sub\n        /* \"#utility.yul\":920:952   */\n      slt\n        /* \"#utility.yul\":917:1036   */\n      iszero\n      tag_78\n      jumpi\n        /* \"#utility.yul\":955:1034   */\n      tag_79\n      tag_46\n      jump\t// in\n    tag_79:\n        /* \"#utility.yul\":917:1036   */\n    tag_78:\n        /* \"#utility.yul\":1075:1076   */\n      0x00\n        /* \"#utility.yul\":1100:1153   */\n      tag_80\n        /* \"#utility.yul\":1145:1152   */\n      dup5\n        /* \"#utility.yul\":1136:1142   */\n      dup3\n        /* \"#utility.yul\":1125:1134   */\n      dup6\n        /* \"#utility.yul\":1121:1143   */\n      add\n        /* \"#utility.yul\":1100:1153   */\n      tag_51\n      jump\t// in\n    tag_80:\n        /* \"#utility.yul\":1090:1153   */\n      swap2\n      pop\n        /* \"#utility.yul\":1046:1163   */\n      pop\n        /* \"#utility.yul\":841:1170   */\n      swap3\n      swap2\n      pop\n      pop\n      jump\t// out\n        /* \"#utility.yul\":1176:1253   */\n    tag_52:\n        /* \"#utility.yul\":1213:1220   */\n      0x00\n        /* \"#utility.yul\":1242:1247   */\n      dup2\n        /* \"#utility.yul\":1231:1247   */\n      swap1\n      pop\n        /* \"#utility.yul\":1176:1253   */\n      swap2\n      swap1\n      pop\n      jump\t// out\n        /* \"#utility.yul\":1259:1377   */\n    tag_53:\n        /* \"#utility.yul\":1346:1370   */\n      tag_83\n        /* \"#utility.yul\":1364:1369   */\n      dup2\n        /* \"#utility.yul\":1346:1370   */\n      tag_52\n      jump\t// in\n    tag_83:\n        /* \"#utility.yul\":1341:1344   */\n      dup3\n        /* \"#utility.yul\":1334:1371   */\n      mstore\n        /* \"#utility.yul\":1259:1377   */\n      pop\n      pop\n      jump\t// out\n        /* \"#utility.yul\":1383:1497   */\n    tag_54:\n        /* \"#utility.yul\":1450:1456   */\n      0x00\n        /* \"#utility.yul\":1484:1489   */\n      dup2\n        /* \"#utility.yul\":1478:1490   */\n      mload\n        /* \"#utility.yul\":1468:1490   */\n      swap1\n      pop\n        /* \"#utility.yul\":1383:1497   */\n      swap2\n      swap1\n      pop\n      jump\t// out\n        /* \"#utility.yul\":1503:1687   */\n    tag_55:\n        /* \"#utility.yul\":1602:1613   */\n      0x00\n        /* \"#utility.yul\":1636:1642   */\n      dup3\n        /* \"#utility.yul\":1631:1634   */\n      dup3\n        /* \"#utility.yul\":1624:1643   */\n      mstore\n        /* \"#utility.yul\":1676:1680   */\n      0x20\n        /* \"#utility.yul\":1671:1674   */\n      dup3\n        /* \"#utility.yul\":1667:1681   */\n      add\n        /* \"#utility.yul\":1652:1681   */\n      swap1\n      pop\n        /* \"#utility.yul\":1503:1687   */\n      swap3\n      swap2\n      pop\n      pop\n      jump\t// out\n        /* \"#utility.yul\":1693:1825   */\n    tag_56:\n        /* \"#utility.yul\":1760:1764   */\n      0x00\n        /* \"#utility.yul\":1783:1786   */\n      dup2\n        /* \"#utility.yul\":1775:1786   */\n      swap1\n      pop\n        /* \"#utility.yul\":1813:1817   */\n      0x20\n        /* \"#utility.yul\":1808:1811   */\n      dup3\n        /* \"#utility.yul\":1804:1818   */\n      add\n        /* \"#utility.yul\":1796:1818   */\n      swap1\n      pop\n        /* \"#utility.yul\":1693:1825   */\n      swap2\n      swap1\n      pop\n      jump\t// out\n        /* \"#utility.yul\":1831:1939   */\n    tag_57:\n        /* \"#utility.yul\":1908:1932   */\n      tag_88\n        /* \"#utility.yul\":1926:1931   */\n      dup2\n        /* \"#utility.yul\":1908:1932   */\n      tag_49\n      jump\t// in\n    tag_88:\n        /* \"#utility.yul\":1903:1906   */\n      dup3\n        /* \"#utility.yul\":1896:1933   */\n      mstore\n        /* \"#utility.yul\":1831:1939   */\n      pop\n      pop\n      jump\t// out\n        /* \"#utility.yul\":1945:2124   */\n    tag_58:\n        /* \"#utility.yul\":2014:2024   */\n      0x00\n        /* \"#utility.yul\":2035:2081   */\n      tag_90\n        /* \"#utility.yul\":2077:2080   */\n      dup4\n        /* \"#utility.yul\":2069:2075   */\n      dup4\n        /* \"#utility.yul\":2035:2081   */\n      tag_57\n      jump\t// in\n    tag_90:\n        /* \"#utility.yul\":2113:2117   */\n      0x20\n        /* \"#utility.yul\":2108:2111   */\n      dup4\n        /* \"#utility.yul\":2104:2118   */\n      add\n        /* \"#utility.yul\":2090:2118   */\n      swap1\n      pop\n        /* \"#utility.yul\":1945:2124   */\n      swap3\n      swap2\n      pop\n      pop\n      jump\t// out\n        /* \"#utility.yul\":2130:2243   */\n    tag_59:\n        /* \"#utility.yul\":2200:2204   */\n      0x00\n        /* \"#utility.yul\":2232:2236   */\n      0x20\n        /* \"#utility.yul\":2227:2230   */\n      dup3\n        /* \"#utility.yul\":2223:2237   */\n      add\n        /* \"#utility.yul\":2215:2237   */\n      swap1\n      pop\n        /* \"#utility.yul\":2130:2243   */\n      swap2\n      swap1\n      pop\n      jump\t// out\n        /* \"#utility.yul\":2279:3011   */\n    tag_60:\n        /* \"#utility.yul\":2398:2401   */\n      0x00\n        /* \"#utility.yul\":2427:2481   */\n      tag_93\n        /* \"#utility.yul\":2475:2480   */\n      dup3\n        /* \"#utility.yul\":2427:2481   */\n      tag_54\n      jump\t// in\n    tag_93:\n        /* \"#utility.yul\":2497:2583   */\n      tag_94\n        /* \"#utility.yul\":2576:2582   */\n      dup2\n        /* \"#utility.yul\":2571:2574   */\n      dup6\n        /* \"#utility.yul\":2497:2583   */\n      tag_55\n      jump\t// in\n    tag_94:\n        /* \"#utility.yul\":2490:2583   */\n      swap4\n      pop\n        /* \"#utility.yul\":2607:2663   */\n      tag_95\n        /* \"#utility.yul\":2657:2662   */\n      dup4\n        /* \"#utility.yul\":2607:2663   */\n      tag_56\n      jump\t// in\n    tag_95:\n        /* \"#utility.yul\":2686:2693   */\n      dup1\n        /* \"#utility.yul\":2717:2718   */\n      0x00\n        /* \"#utility.yul\":2702:2986   */\n    tag_96:\n        /* \"#utility.yul\":2727:2733   */\n      dup4\n        /* \"#utility.yul\":2724:2725   */\n      dup2\n        /* \"#utility.yul\":2721:2734   */\n      lt\n        /* \"#utility.yul\":2702:2986   */\n      iszero\n      tag_98\n      jumpi\n        /* \"#utility.yul\":2803:2809   */\n      dup2\n        /* \"#utility.yul\":2797:2810   */\n      mload\n        /* \"#utility.yul\":2830:2893   */\n      tag_99\n        /* \"#utility.yul\":2889:2892   */\n      dup9\n        /* \"#utility.yul\":2874:2887   */\n      dup3\n        /* \"#utility.yul\":2830:2893   */\n      tag_58\n      jump\t// in\n    tag_99:\n        /* \"#utility.yul\":2823:2893   */\n      swap8\n      pop\n        /* \"#utility.yul\":2916:2976   */\n      tag_100\n        /* \"#utility.yul\":2969:2975   */\n      dup4\n        /* \"#utility.yul\":2916:2976   */\n      tag_59\n      jump\t// in\n    tag_100:\n        /* \"#utility.yul\":2906:2976   */\n      swap3\n      pop\n        /* \"#utility.yul\":2762:2986   */\n      pop\n        /* \"#utility.yul\":2749:2750   */\n      0x01\n        /* \"#utility.yul\":2746:2747   */\n      dup2\n        /* \"#utility.yul\":2742:2751   */\n      add\n        /* \"#utility.yul\":2737:2751   */\n      swap1\n      pop\n        /* \"#utility.yul\":2702:2986   */\n      jump(tag_96)\n    tag_98:\n        /* \"#utility.yul\":2706:2720   */\n      pop\n        /* \"#utility.yul\":3002:3005   */\n      dup6\n        /* \"#utility.yul\":2995:3005   */\n      swap4\n      pop\n        /* \"#utility.yul\":2403:3011   */\n      pop\n      pop\n      pop\n        /* \"#utility.yul\":2279:3011   */\n      swap3\n      swap2\n      pop\n      pop\n      jump\t// out\n        /* \"#utility.yul\":3017:3500   */\n    tag_17:\n        /* \"#utility.yul\":3188:3192   */\n      0x00\n        /* \"#utility.yul\":3226:3228   */\n      0x40\n        /* \"#utility.yul\":3215:3224   */\n      dup3\n        /* \"#utility.yul\":3211:3229   */\n      add\n        /* \"#utility.yul\":3203:3229   */\n      swap1\n      pop\n        /* \"#utility.yul\":3239:3310   */\n      tag_102\n        /* \"#utility.yul\":3307:3308   */\n      0x00\n        /* \"#utility.yul\":3296:3305   */\n      dup4\n        /* \"#utility.yul\":3292:3309   */\n      add\n        /* \"#utility.yul\":3283:3289   */\n      dup6\n        /* \"#utility.yul\":3239:3310   */\n      tag_53\n      jump\t// in\n    tag_102:\n        /* \"#utility.yul\":3357:3366   */\n      dup2\n        /* \"#utility.yul\":3351:3355   */\n      dup2\n        /* \"#utility.yul\":3347:3367   */\n      sub\n        /* \"#utility.yul\":3342:3344   */\n      0x20\n        /* \"#utility.yul\":3331:3340   */\n      dup4\n        /* \"#utility.yul\":3327:3345   */\n      add\n        /* \"#utility.yul\":3320:3368   */\n      mstore\n        /* \"#utility.yul\":3385:3493   */\n      tag_103\n        /* \"#utility.yul\":3488:3492   */\n      dup2\n        /* \"#utility.yul\":3479:3485   */\n      dup5\n        /* \"#utility.yul\":3385:3493   */\n      tag_60\n      jump\t// in\n    tag_103:\n        /* \"#utility.yul\":3377:3493   */\n      swap1\n      pop\n        /* \"#utility.yul\":3017:3500   */\n      swap4\n      swap3\n      pop\n      pop\n      pop\n      jump\t// out\n        /* \"#utility.yul\":3506:3686   */\n    tag_27:\n        /* \"#utility.yul\":3554:3631   */\n      0x4e487b7100000000000000000000000000000000000000000000000000000000\n        /* \"#utility.yul\":3551:3552   */\n      0x00\n        /* \"#utility.yul\":3544:3632   */\n      mstore\n        /* \"#utility.yul\":3651:3655   */\n      0x41\n        /* \"#utility.yul\":3648:3649   */\n      0x04\n        /* \"#utility.yul\":3641:3656   */\n      mstore\n        /* \"#utility.yul\":3675:3679   */\n      0x24\n        /* \"#utility.yul\":3672:3673   */\n      0x00\n        /* \"#utility.yul\":3665:3680   */\n      revert\n        /* \"#utility.yul\":3692:3872   */\n    tag_34:\n        /* \"#utility.yul\":3740:3817   */\n      0x4e487b7100000000000000000000000000000000000000000000000000000000\n        /* \"#utility.yul\":3737:3738   */\n      0x00\n        /* \"#utility.yul\":3730:3818   */\n      mstore\n        /* \"#utility.yul\":3837:3841   */\n      0x32\n        /* \"#utility.yul\":3834:3835   */\n      0x04\n        /* \"#utility.yul\":3827:3842   */\n      mstore\n        /* \"#utility.yul\":3861:3865   */\n      0x24\n        /* \"#utility.yul\":3858:3859   */\n      0x00\n        /* \"#utility.yul\":3851:3866   */\n      revert\n        /* \"#utility.yul\":3878:4058   */\n    tag_61:\n        /* \"#utility.yul\":3926:4003   */\n      0x4e487b7100000000000000000000000000000000000000000000000000000000\n        /* \"#utility.yul\":3923:3924   */\n      0x00\n        /* \"#utility.yul\":3916:4004   */\n      mstore\n        /* \"#utility.yul\":4023:4027   */\n      0x11\n        /* \"#utility.yul\":4020:4021   */\n      0x04\n        /* \"#utility.yul\":4013:4028   */\n      mstore\n        /* \"#utility.yul\":4047:4051   */\n      0x24\n        /* \"#utility.yul\":4044:4045   */\n      0x00\n        /* \"#utility.yul\":4037:4052   */\n      revert\n        /* \"#utility.yul\":4064:4297   */\n    tag_39:\n        /* \"#utility.yul\":4103:4106   */\n      0x00\n        /* \"#utility.yul\":4126:4150   */\n      tag_108\n        /* \"#utility.yul\":4144:4149   */\n      dup3\n        /* \"#utility.yul\":4126:4150   */\n      tag_52\n      jump\t// in\n    tag_108:\n        /* \"#utility.yul\":4117:4150   */\n      swap2\n      pop\n        /* \"#utility.yul\":4172:4238   */\n      0xffffffffffffffffffffffffffffffffffffffffffffffffffffffffffffffff\n        /* \"#utility.yul\":4165:4170   */\n      dup3\n        /* \"#utility.yul\":4162:4239   */\n      sub\n        /* \"#utility.yul\":4159:4262   */\n      tag_109\n      jumpi\n        /* \"#utility.yul\":4242:4260   */\n      tag_110\n      tag_61\n      jump\t// in\n    tag_110:\n        /* \"#utility.yul\":4159:4262   */\n    tag_109:\n        /* \"#utility.yul\":4289:4290   */\n      0x01\n        /* \"#utility.yul\":4282:4287   */\n      dup3\n        /* \"#utility.yul\":4278:4291   */\n      add\n        /* \"#utility.yul\":4271:4291   */\n      swap1\n      pop\n        /* \"#utility.yul\":4064:4297   */\n      swap2\n      swap1\n      pop\n      jump\t// out\n        /* \"#utility.yul\":4303:4472   */\n    tag_62:\n        /* \"#utility.yul\":4387:4398   */\n      0x00\n        /* \"#utility.yul\":4421:4427   */\n      dup3\n        /* \"#utility.yul\":4416:4419   */\n      dup3\n        /* \"#utility.yul\":4409:4428   */\n      mstore\n        /* \"#utility.yul\":4461:4465   */\n      0x20\n        /* \"#utility.yul\":4456:4459   */\n      dup3\n        /* \"#utility.yul\":4452:4466   */\n      add\n        /* \"#utility.yul\":4437:4466   */\n      swap1\n      pop\n        /* \"#utility.yul\":4303:4472   */\n      swap3\n      swap2\n      pop\n      pop\n      jump\t// out\n        /* \"#utility.yul\":4478:4721   */\n    tag_63:\n        /* \"#utility.yul\":4618:4652   */\n      0x4f6e6c7920617070726f7665642061646d697373696f6e73206f666669636572\n        /* \"#utility.yul\":4614:4615   */\n      0x00\n        /* \"#utility.yul\":4606:4612   */\n      dup3\n        /* \"#utility.yul\":4602:4616   */\n      add\n        /* \"#utility.yul\":4595:4653   */\n      mstore\n        /* \"#utility.yul\":4687:4713   */\n      0x732063616e2063616c6c20746869732066756e6374696f6e0000000000000000\n        /* \"#utility.yul\":4682:4684   */\n      0x20\n        /* \"#utility.yul\":4674:4680   */\n      dup3\n        /* \"#utility.yul\":4670:4685   */\n      add\n        /* \"#utility.yul\":4663:4714   */\n      mstore\n        /* \"#utility.yul\":4478:4721   */\n      pop\n      jump\t// out\n        /* \"#utility.yul\":4727:5093   */\n    tag_64:\n        /* \"#utility.yul\":4869:4872   */\n      0x00\n        /* \"#utility.yul\":4890:4957   */\n      tag_114\n        /* \"#utility.yul\":4954:4956   */\n      0x38\n        /* \"#utility.yul\":4949:4952   */\n      dup4\n        /* \"#utility.yul\":4890:4957   */\n      tag_62\n      jump\t// in\n    tag_114:\n        /* \"#utility.yul\":4883:4957   */\n      swap2\n      pop\n        /* \"#utility.yul\":4966:5059   */\n      tag_115\n        /* \"#utility.yul\":5055:5058   */\n      dup3\n        /* \"#utility.yul\":4966:5059   */\n      tag_63\n      jump\t// in\n    tag_115:\n        /* \"#utility.yul\":5084:5086   */\n      0x40\n        /* \"#utility.yul\":5079:5082   */\n      dup3\n        /* \"#utility.yul\":5075:5087   */\n      add\n        /* \"#utility.yul\":5068:5087   */\n      swap1\n      pop\n        /* \"#utility.yul\":4727:5093   */\n      swap2\n      swap1\n      pop\n      jump\t// out\n        /* \"#utility.yul\":5099:5518   */\n    tag_43:\n        /* \"#utility.yul\":5265:5269   */\n      0x00\n        /* \"#utility.yul\":5303:5305   */\n      0x20\n        /* \"#utility.yul\":5292:5301   */\n      dup3\n        /* \"#utility.yul\":5288:5306   */\n      add\n        /* \"#utility.yul\":5280:5306   */\n      swap1\n      pop\n        /* \"#utility.yul\":5352:5361   */\n      dup2\n        /* \"#utility.yul\":5346:5350   */\n      dup2\n        /* \"#utility.yul\":5342:5362   */\n      sub\n        /* \"#utility.yul\":5338:5339   */\n      0x00\n        /* \"#utility.yul\":5327:5336   */\n      dup4\n        /* \"#utility.yul\":5323:5340   */\n      add\n        /* \"#utility.yul\":5316:5363   */\n      mstore\n        /* \"#utility.yul\":5380:5511   */\n      tag_117\n        /* \"#utility.yul\":5506:5510   */\n      dup2\n        /* \"#utility.yul\":5380:5511   */\n      tag_64\n      jump\t// in\n    tag_117:\n        /* \"#utility.yul\":5372:5511   */\n      swap1\n      pop\n        /* \"#utility.yul\":5099:5518   */\n      swap2\n      swap1\n      pop\n      jump\t// out\n\n    auxdata: 0xa2646970667358221220d404cc95a5a5c7b7cd386637e65c9dbb718010b539c62449122fdfa1bd43939764736f6c63430008120033\n}\n",
				"bytecode": {
					"linkReferences": {},
					"object": "608060405234801561001057600080fd5b5060405161071e38038061071e8339818101604052810190610032919061007a565b80600281905550506100a7565b600080fd5b6000819050919050565b61005781610044565b811461006257600080fd5b50565b6000815190506100748161004e565b92915050565b6000602082840312156100905761008f61003f565b5b600061009e84828501610065565b91505092915050565b610668806100b66000396000f3fe6080604052600436106100385760003560e01c8063bd06ea1914610044578063f1d064b31461006d578063f725aa25146100995761003f565b3661003f57005b600080fd5b34801561005057600080fd5b5061006b60048036038101906100669190610386565b6100c2565b005b34801561007957600080fd5b50610082610128565b60405161009092919061048a565b60405180910390f35b3480156100a557600080fd5b506100c060048036038101906100bb9190610386565b61023d565b005b6000819080600181540180825580915050600190039060005260206000200160009091909190916101000a81548173ffffffffffffffffffffffffffffffffffffffff021916908373ffffffffffffffffffffffffffffffffffffffff16021790555050565b600060606000808054905067ffffffffffffffff81111561014c5761014b6104ba565b5b60405190808252806020026020018201604052801561017a5781602001602082028036833780820191505090505b50905060005b60008054905081101561022c57600081815481106101a1576101a06104e9565b5b9060005260206000200160009054906101000a900473ffffffffffffffffffffffffffffffffffffffff168282815181106101df576101de6104e9565b5b602002602001019073ffffffffffffffffffffffffffffffffffffffff16908173ffffffffffffffffffffffffffffffffffffffff1681525050808061022490610547565b915050610180565b506000805490508192509250509091565b600160003373ffffffffffffffffffffffffffffffffffffffff1673ffffffffffffffffffffffffffffffffffffffff16815260200190815260200160002060009054906101000a900460ff166102c9576040517f08c379a00000000000000000000000000000000000000000000000000000000081526004016102c090610612565b60405180910390fd5b60018060008373ffffffffffffffffffffffffffffffffffffffff1673ffffffffffffffffffffffffffffffffffffffff16815260200190815260200160002060006101000a81548160ff02191690831515021790555050565b600080fd5b600073ffffffffffffffffffffffffffffffffffffffff82169050919050565b600061035382610328565b9050919050565b61036381610348565b811461036e57600080fd5b50565b6000813590506103808161035a565b92915050565b60006020828403121561039c5761039b610323565b5b60006103aa84828501610371565b91505092915050565b6000819050919050565b6103c6816103b3565b82525050565b600081519050919050565b600082825260208201905092915050565b6000819050602082019050919050565b61040181610348565b82525050565b600061041383836103f8565b60208301905092915050565b6000602082019050919050565b6000610437826103cc565b61044181856103d7565b935061044c836103e8565b8060005b8381101561047d5781516104648882610407565b975061046f8361041f565b925050600181019050610450565b5085935050505092915050565b600060408201905061049f60008301856103bd565b81810360208301526104b1818461042c565b90509392505050565b7f4e487b7100000000000000000000000000000000000000000000000000000000600052604160045260246000fd5b7f4e487b7100000000000000000000000000000000000000000000000000000000600052603260045260246000fd5b7f4e487b7100000000000000000000000000000000000000000000000000000000600052601160045260246000fd5b6000610552826103b3565b91507fffffffffffffffffffffffffffffffffffffffffffffffffffffffffffffffff820361058457610583610518565b5b600182019050919050565b600082825260208201905092915050565b7f4f6e6c7920617070726f7665642061646d697373696f6e73206f66666963657260008201527f732063616e2063616c6c20746869732066756e6374696f6e0000000000000000602082015250565b60006105fc60388361058f565b9150610607826105a0565b604082019050919050565b6000602082019050818103600083015261062b816105ef565b905091905056fea2646970667358221220d404cc95a5a5c7b7cd386637e65c9dbb718010b539c62449122fdfa1bd43939764736f6c63430008120033",
					"opcodes": "PUSH1 0x80 PUSH1 0x40 MSTORE CALLVALUE DUP1 ISZERO PUSH2 0x10 JUMPI PUSH1 0x0 DUP1 REVERT JUMPDEST POP PUSH1 0x40 MLOAD PUSH2 0x71E CODESIZE SUB DUP1 PUSH2 0x71E DUP4 CODECOPY DUP2 DUP2 ADD PUSH1 0x40 MSTORE DUP2 ADD SWAP1 PUSH2 0x32 SWAP2 SWAP1 PUSH2 0x7A JUMP JUMPDEST DUP1 PUSH1 0x2 DUP2 SWAP1 SSTORE POP POP PUSH2 0xA7 JUMP JUMPDEST PUSH1 0x0 DUP1 REVERT JUMPDEST PUSH1 0x0 DUP2 SWAP1 POP SWAP2 SWAP1 POP JUMP JUMPDEST PUSH2 0x57 DUP2 PUSH2 0x44 JUMP JUMPDEST DUP2 EQ PUSH2 0x62 JUMPI PUSH1 0x0 DUP1 REVERT JUMPDEST POP JUMP JUMPDEST PUSH1 0x0 DUP2 MLOAD SWAP1 POP PUSH2 0x74 DUP2 PUSH2 0x4E JUMP JUMPDEST SWAP3 SWAP2 POP POP JUMP JUMPDEST PUSH1 0x0 PUSH1 0x20 DUP3 DUP5 SUB SLT ISZERO PUSH2 0x90 JUMPI PUSH2 0x8F PUSH2 0x3F JUMP JUMPDEST JUMPDEST PUSH1 0x0 PUSH2 0x9E DUP5 DUP3 DUP6 ADD PUSH2 0x65 JUMP JUMPDEST SWAP2 POP POP SWAP3 SWAP2 POP POP JUMP JUMPDEST PUSH2 0x668 DUP1 PUSH2 0xB6 PUSH1 0x0 CODECOPY PUSH1 0x0 RETURN INVALID PUSH1 0x80 PUSH1 0x40 MSTORE PUSH1 0x4 CALLDATASIZE LT PUSH2 0x38 JUMPI PUSH1 0x0 CALLDATALOAD PUSH1 0xE0 SHR DUP1 PUSH4 0xBD06EA19 EQ PUSH2 0x44 JUMPI DUP1 PUSH4 0xF1D064B3 EQ PUSH2 0x6D JUMPI DUP1 PUSH4 0xF725AA25 EQ PUSH2 0x99 JUMPI PUSH2 0x3F JUMP JUMPDEST CALLDATASIZE PUSH2 0x3F JUMPI STOP JUMPDEST PUSH1 0x0 DUP1 REVERT JUMPDEST CALLVALUE DUP1 ISZERO PUSH2 0x50 JUMPI PUSH1 0x0 DUP1 REVERT JUMPDEST POP PUSH2 0x6B PUSH1 0x4 DUP1 CALLDATASIZE SUB DUP2 ADD SWAP1 PUSH2 0x66 SWAP2 SWAP1 PUSH2 0x386 JUMP JUMPDEST PUSH2 0xC2 JUMP JUMPDEST STOP JUMPDEST CALLVALUE DUP1 ISZERO PUSH2 0x79 JUMPI PUSH1 0x0 DUP1 REVERT JUMPDEST POP PUSH2 0x82 PUSH2 0x128 JUMP JUMPDEST PUSH1 0x40 MLOAD PUSH2 0x90 SWAP3 SWAP2 SWAP1 PUSH2 0x48A JUMP JUMPDEST PUSH1 0x40 MLOAD DUP1 SWAP2 SUB SWAP1 RETURN JUMPDEST CALLVALUE DUP1 ISZERO PUSH2 0xA5 JUMPI PUSH1 0x0 DUP1 REVERT JUMPDEST POP PUSH2 0xC0 PUSH1 0x4 DUP1 CALLDATASIZE SUB DUP2 ADD SWAP1 PUSH2 0xBB SWAP2 SWAP1 PUSH2 0x386 JUMP JUMPDEST PUSH2 0x23D JUMP JUMPDEST STOP JUMPDEST PUSH1 0x0 DUP2 SWAP1 DUP1 PUSH1 0x1 DUP2 SLOAD ADD DUP1 DUP3 SSTORE DUP1 SWAP2 POP POP PUSH1 0x1 SWAP1 SUB SWAP1 PUSH1 0x0 MSTORE PUSH1 0x20 PUSH1 0x0 KECCAK256 ADD PUSH1 0x0 SWAP1 SWAP2 SWAP1 SWAP2 SWAP1 SWAP2 PUSH2 0x100 EXP DUP2 SLOAD DUP2 PUSH20 0xFFFFFFFFFFFFFFFFFFFFFFFFFFFFFFFFFFFFFFFF MUL NOT AND SWAP1 DUP4 PUSH20 0xFFFFFFFFFFFFFFFFFFFFFFFFFFFFFFFFFFFFFFFF AND MUL OR SWAP1 SSTORE POP POP JUMP JUMPDEST PUSH1 0x0 PUSH1 0x60 PUSH1 0x0 DUP1 DUP1 SLOAD SWAP1 POP PUSH8 0xFFFFFFFFFFFFFFFF DUP2 GT ISZERO PUSH2 0x14C JUMPI PUSH2 0x14B PUSH2 0x4BA JUMP JUMPDEST JUMPDEST PUSH1 0x40 MLOAD SWAP1 DUP1 DUP3 MSTORE DUP1 PUSH1 0x20 MUL PUSH1 0x20 ADD DUP3 ADD PUSH1 0x40 MSTORE DUP1 ISZERO PUSH2 0x17A JUMPI DUP2 PUSH1 0x20 ADD PUSH1 0x20 DUP3 MUL DUP1 CALLDATASIZE DUP4 CALLDATACOPY DUP1 DUP3 ADD SWAP2 POP POP SWAP1 POP JUMPDEST POP SWAP1 POP PUSH1 0x0 JUMPDEST PUSH1 0x0 DUP1 SLOAD SWAP1 POP DUP2 LT ISZERO PUSH2 0x22C JUMPI PUSH1 0x0 DUP2 DUP2 SLOAD DUP2 LT PUSH2 0x1A1 JUMPI PUSH2 0x1A0 PUSH2 0x4E9 JUMP JUMPDEST JUMPDEST SWAP1 PUSH1 0x0 MSTORE PUSH1 0x20 PUSH1 0x0 KECCAK256 ADD PUSH1 0x0 SWAP1 SLOAD SWAP1 PUSH2 0x100 EXP SWAP1 DIV PUSH20 0xFFFFFFFFFFFFFFFFFFFFFFFFFFFFFFFFFFFFFFFF AND DUP3 DUP3 DUP2 MLOAD DUP2 LT PUSH2 0x1DF JUMPI PUSH2 0x1DE PUSH2 0x4E9 JUMP JUMPDEST JUMPDEST PUSH1 0x20 MUL PUSH1 0x20 ADD ADD SWAP1 PUSH20 0xFFFFFFFFFFFFFFFFFFFFFFFFFFFFFFFFFFFFFFFF AND SWAP1 DUP2 PUSH20 0xFFFFFFFFFFFFFFFFFFFFFFFFFFFFFFFFFFFFFFFF AND DUP2 MSTORE POP POP DUP1 DUP1 PUSH2 0x224 SWAP1 PUSH2 0x547 JUMP JUMPDEST SWAP2 POP POP PUSH2 0x180 JUMP JUMPDEST POP PUSH1 0x0 DUP1 SLOAD SWAP1 POP DUP2 SWAP3 POP SWAP3 POP POP SWAP1 SWAP2 JUMP JUMPDEST PUSH1 0x1 PUSH1 0x0 CALLER PUSH20 0xFFFFFFFFFFFFFFFFFFFFFFFFFFFFFFFFFFFFFFFF AND PUSH20 0xFFFFFFFFFFFFFFFFFFFFFFFFFFFFFFFFFFFFFFFF AND DUP2 MSTORE PUSH1 0x20 ADD SWAP1 DUP2 MSTORE PUSH1 0x20 ADD PUSH1 0x0 KECCAK256 PUSH1 0x0 SWAP1 SLOAD SWAP1 PUSH2 0x100 EXP SWAP1 DIV PUSH1 0xFF AND PUSH2 0x2C9 JUMPI PUSH1 0x40 MLOAD PUSH32 0x8C379A000000000000000000000000000000000000000000000000000000000 DUP2 MSTORE PUSH1 0x4 ADD PUSH2 0x2C0 SWAP1 PUSH2 0x612 JUMP JUMPDEST PUSH1 0x40 MLOAD DUP1 SWAP2 SUB SWAP1 REVERT JUMPDEST PUSH1 0x1 DUP1 PUSH1 0x0 DUP4 PUSH20 0xFFFFFFFFFFFFFFFFFFFFFFFFFFFFFFFFFFFFFFFF AND PUSH20 0xFFFFFFFFFFFFFFFFFFFFFFFFFFFFFFFFFFFFFFFF AND DUP2 MSTORE PUSH1 0x20 ADD SWAP1 DUP2 MSTORE PUSH1 0x20 ADD PUSH1 0x0 KECCAK256 PUSH1 0x0 PUSH2 0x100 EXP DUP2 SLOAD DUP2 PUSH1 0xFF MUL NOT AND SWAP1 DUP4 ISZERO ISZERO MUL OR SWAP1 SSTORE POP POP JUMP JUMPDEST PUSH1 0x0 DUP1 REVERT JUMPDEST PUSH1 0x0 PUSH20 0xFFFFFFFFFFFFFFFFFFFFFFFFFFFFFFFFFFFFFFFF DUP3 AND SWAP1 POP SWAP2 SWAP1 POP JUMP JUMPDEST PUSH1 0x0 PUSH2 0x353 DUP3 PUSH2 0x328 JUMP JUMPDEST SWAP1 POP SWAP2 SWAP1 POP JUMP JUMPDEST PUSH2 0x363 DUP2 PUSH2 0x348 JUMP JUMPDEST DUP2 EQ PUSH2 0x36E JUMPI PUSH1 0x0 DUP1 REVERT JUMPDEST POP JUMP JUMPDEST PUSH1 0x0 DUP2 CALLDATALOAD SWAP1 POP PUSH2 0x380 DUP2 PUSH2 0x35A JUMP JUMPDEST SWAP3 SWAP2 POP POP JUMP JUMPDEST PUSH1 0x0 PUSH1 0x20 DUP3 DUP5 SUB SLT ISZERO PUSH2 0x39C JUMPI PUSH2 0x39B PUSH2 0x323 JUMP JUMPDEST JUMPDEST PUSH1 0x0 PUSH2 0x3AA DUP5 DUP3 DUP6 ADD PUSH2 0x371 JUMP JUMPDEST SWAP2 POP POP SWAP3 SWAP2 POP POP JUMP JUMPDEST PUSH1 0x0 DUP2 SWAP1 POP SWAP2 SWAP1 POP JUMP JUMPDEST PUSH2 0x3C6 DUP2 PUSH2 0x3B3 JUMP JUMPDEST DUP3 MSTORE POP POP JUMP JUMPDEST PUSH1 0x0 DUP2 MLOAD SWAP1 POP SWAP2 SWAP1 POP JUMP JUMPDEST PUSH1 0x0 DUP3 DUP3 MSTORE PUSH1 0x20 DUP3 ADD SWAP1 POP SWAP3 SWAP2 POP POP JUMP JUMPDEST PUSH1 0x0 DUP2 SWAP1 POP PUSH1 0x20 DUP3 ADD SWAP1 POP SWAP2 SWAP1 POP JUMP JUMPDEST PUSH2 0x401 DUP2 PUSH2 0x348 JUMP JUMPDEST DUP3 MSTORE POP POP JUMP JUMPDEST PUSH1 0x0 PUSH2 0x413 DUP4 DUP4 PUSH2 0x3F8 JUMP JUMPDEST PUSH1 0x20 DUP4 ADD SWAP1 POP SWAP3 SWAP2 POP POP JUMP JUMPDEST PUSH1 0x0 PUSH1 0x20 DUP3 ADD SWAP1 POP SWAP2 SWAP1 POP JUMP JUMPDEST PUSH1 0x0 PUSH2 0x437 DUP3 PUSH2 0x3CC JUMP JUMPDEST PUSH2 0x441 DUP2 DUP6 PUSH2 0x3D7 JUMP JUMPDEST SWAP4 POP PUSH2 0x44C DUP4 PUSH2 0x3E8 JUMP JUMPDEST DUP1 PUSH1 0x0 JUMPDEST DUP4 DUP2 LT ISZERO PUSH2 0x47D JUMPI DUP2 MLOAD PUSH2 0x464 DUP9 DUP3 PUSH2 0x407 JUMP JUMPDEST SWAP8 POP PUSH2 0x46F DUP4 PUSH2 0x41F JUMP JUMPDEST SWAP3 POP POP PUSH1 0x1 DUP2 ADD SWAP1 POP PUSH2 0x450 JUMP JUMPDEST POP DUP6 SWAP4 POP POP POP POP SWAP3 SWAP2 POP POP JUMP JUMPDEST PUSH1 0x0 PUSH1 0x40 DUP3 ADD SWAP1 POP PUSH2 0x49F PUSH1 0x0 DUP4 ADD DUP6 PUSH2 0x3BD JUMP JUMPDEST DUP2 DUP2 SUB PUSH1 0x20 DUP4 ADD MSTORE PUSH2 0x4B1 DUP2 DUP5 PUSH2 0x42C JUMP JUMPDEST SWAP1 POP SWAP4 SWAP3 POP POP POP JUMP JUMPDEST PUSH32 0x4E487B7100000000000000000000000000000000000000000000000000000000 PUSH1 0x0 MSTORE PUSH1 0x41 PUSH1 0x4 MSTORE PUSH1 0x24 PUSH1 0x0 REVERT JUMPDEST PUSH32 0x4E487B7100000000000000000000000000000000000000000000000000000000 PUSH1 0x0 MSTORE PUSH1 0x32 PUSH1 0x4 MSTORE PUSH1 0x24 PUSH1 0x0 REVERT JUMPDEST PUSH32 0x4E487B7100000000000000000000000000000000000000000000000000000000 PUSH1 0x0 MSTORE PUSH1 0x11 PUSH1 0x4 MSTORE PUSH1 0x24 PUSH1 0x0 REVERT JUMPDEST PUSH1 0x0 PUSH2 0x552 DUP3 PUSH2 0x3B3 JUMP JUMPDEST SWAP2 POP PUSH32 0xFFFFFFFFFFFFFFFFFFFFFFFFFFFFFFFFFFFFFFFFFFFFFFFFFFFFFFFFFFFFFFFF DUP3 SUB PUSH2 0x584 JUMPI PUSH2 0x583 PUSH2 0x518 JUMP JUMPDEST JUMPDEST PUSH1 0x1 DUP3 ADD SWAP1 POP SWAP2 SWAP1 POP JUMP JUMPDEST PUSH1 0x0 DUP3 DUP3 MSTORE PUSH1 0x20 DUP3 ADD SWAP1 POP SWAP3 SWAP2 POP POP JUMP JUMPDEST PUSH32 0x4F6E6C7920617070726F7665642061646D697373696F6E73206F666669636572 PUSH1 0x0 DUP3 ADD MSTORE PUSH32 0x732063616E2063616C6C20746869732066756E6374696F6E0000000000000000 PUSH1 0x20 DUP3 ADD MSTORE POP JUMP JUMPDEST PUSH1 0x0 PUSH2 0x5FC PUSH1 0x38 DUP4 PUSH2 0x58F JUMP JUMPDEST SWAP2 POP PUSH2 0x607 DUP3 PUSH2 0x5A0 JUMP JUMPDEST PUSH1 0x40 DUP3 ADD SWAP1 POP SWAP2 SWAP1 POP JUMP JUMPDEST PUSH1 0x0 PUSH1 0x20 DUP3 ADD SWAP1 POP DUP2 DUP2 SUB PUSH1 0x0 DUP4 ADD MSTORE PUSH2 0x62B DUP2 PUSH2 0x5EF JUMP JUMPDEST SWAP1 POP SWAP2 SWAP1 POP JUMP INVALID LOG2 PUSH5 0x6970667358 0x22 SLT KECCAK256 0xD4 DIV 0xCC SWAP6 0xA5 0xA5 0xC7 0xB7 0xCD CODESIZE PUSH7 0x37E65C9DBB7180 LT 0xB5 CODECOPY 0xC6 0x24 0x49 SLT 0x2F 0xDF LOG1 0xBD NUMBER SWAP4 SWAP8 PUSH5 0x736F6C6343 STOP ADDMOD SLT STOP CALLER "
				},
				"gasEstimates": {
					"creation": {
						"codeDepositCost": "328000",
						"executionCost": "infinite",
						"totalCost": "infinite"
					},
					"external": {
						"addStudent(address)": "49012",
						"approveAdmissionsOfficer(address)": "27076",
						"getStudents()": "infinite"
					}
				},
				"methodIdentifiers": {
					"addStudent(address)": "bd06ea19",
					"approveAdmissionsOfficer(address)": "f725aa25",
					"getStudents()": "f1d064b3"
				}
			},
			"storageLayout": {
				"storage": [
					{
						"astId": 64,
						"contract": "contracts/universityContracts/admissionsOffice.sol:AdmissionsOffice",
						"label": "students",
						"offset": 0,
						"slot": "0",
						"type": "t_array(t_address)dyn_storage"
					},
					{
						"astId": 68,
						"contract": "contracts/universityContracts/admissionsOffice.sol:AdmissionsOffice",
						"label": "approvedAdmissionsOfficers",
						"offset": 0,
						"slot": "1",
						"type": "t_mapping(t_address,t_bool)"
					},
					{
						"astId": 70,
						"contract": "contracts/universityContracts/admissionsOffice.sol:AdmissionsOffice",
						"label": "maxStudents",
						"offset": 0,
						"slot": "2",
						"type": "t_uint256"
					}
				],
				"types": {
					"t_address": {
						"encoding": "inplace",
						"label": "address",
						"numberOfBytes": "20"
					},
					"t_array(t_address)dyn_storage": {
						"base": "t_address",
						"encoding": "dynamic_array",
						"label": "address[]",
						"numberOfBytes": "32"
					},
					"t_bool": {
						"encoding": "inplace",
						"label": "bool",
						"numberOfBytes": "1"
					},
					"t_mapping(t_address,t_bool)": {
						"encoding": "mapping",
						"key": "t_address",
						"label": "mapping(address => bool)",
						"numberOfBytes": "32",
						"value": "t_bool"
					},
					"t_uint256": {
						"encoding": "inplace",
						"label": "uint256",
						"numberOfBytes": "32"
					}
				}
			},
			"userdoc": {
				"kind": "user",
				"methods": {},
				"version": 1
			}
		}
	}
}