{
  "abi": [
    {
      "inputs": [
        {
          "internalType": "address",
          "name": "_applicantContract",
          "type": "address"
        },
        {
          "internalType": "address",
          "name": "_admissionsContract",
          "type": "address"
        }
      ],
      "stateMutability": "nonpayable",
      "type": "constructor"
    },
    {
      "anonymous": false,
      "inputs": [
        {
          "indexed": true,
          "internalType": "address",
          "name": "owner",
          "type": "address"
        },
        {
          "indexed": true,
          "internalType": "address",
          "name": "approved",
          "type": "address"
        },
        {
          "indexed": true,
          "internalType": "uint256",
          "name": "tokenId",
          "type": "uint256"
        }
      ],
      "name": "Approval",
      "type": "event"
    },
    {
      "anonymous": false,
      "inputs": [
        {
          "indexed": true,
          "internalType": "address",
          "name": "owner",
          "type": "address"
        },
        {
          "indexed": true,
          "internalType": "address",
          "name": "operator",
          "type": "address"
        },
        {
          "indexed": false,
          "internalType": "bool",
          "name": "approved",
          "type": "bool"
        }
      ],
      "name": "ApprovalForAll",
      "type": "event"
    },
    {
      "anonymous": false,
      "inputs": [
        {
          "indexed": true,
          "internalType": "address",
          "name": "from",
          "type": "address"
        },
        {
          "indexed": true,
          "internalType": "address",
          "name": "to",
          "type": "address"
        },
        {
          "indexed": true,
          "internalType": "uint256",
          "name": "tokenId",
          "type": "uint256"
        }
      ],
      "name": "Transfer",
      "type": "event"
    },
    {
      "inputs": [
        {
          "internalType": "address",
          "name": "to",
          "type": "address"
        },
        {
          "internalType": "uint256",
          "name": "tokenId",
          "type": "uint256"
        }
      ],
      "name": "approve",
      "outputs": [],
      "stateMutability": "nonpayable",
      "type": "function"
    },
    {
      "inputs": [
        {
          "internalType": "address",
          "name": "owner",
          "type": "address"
        }
      ],
      "name": "balanceOf",
      "outputs": [
        {
          "internalType": "uint256",
          "name": "",
          "type": "uint256"
        }
      ],
      "stateMutability": "view",
      "type": "function"
    },
    {
      "inputs": [
        {
          "internalType": "string",
          "name": "name",
          "type": "string"
        },
        {
          "internalType": "string",
          "name": "university",
          "type": "string"
        },
        {
          "internalType": "string",
          "name": "ipfsLink",
          "type": "string"
        }
      ],
      "name": "createApplication",
      "outputs": [],
      "stateMutability": "nonpayable",
      "type": "function"
    },
    {
      "inputs": [],
      "name": "getAdmissionsContractAddress",
      "outputs": [
        {
          "internalType": "address",
          "name": "",
          "type": "address"
        }
      ],
      "stateMutability": "view",
      "type": "function"
    },
    {
      "inputs": [],
      "name": "getApplicantContractAddress",
      "outputs": [
        {
          "internalType": "address",
          "name": "",
          "type": "address"
        }
      ],
      "stateMutability": "view",
      "type": "function"
    },
    {
      "inputs": [
        {
          "internalType": "uint256",
          "name": "tokenId",
          "type": "uint256"
        }
      ],
      "name": "getApplication",
      "outputs": [
        {
          "components": [
            {
              "internalType": "string",
              "name": "name",
              "type": "string"
            },
            {
              "internalType": "string",
              "name": "university",
              "type": "string"
            },
            {
              "internalType": "string",
              "name": "ipfsLink",
              "type": "string"
            }
          ],
          "internalType": "struct Application.ApplicantData",
          "name": "",
          "type": "tuple"
        }
      ],
      "stateMutability": "view",
      "type": "function"
    },
    {
      "inputs": [
        {
          "internalType": "uint256",
          "name": "tokenId",
          "type": "uint256"
        }
      ],
      "name": "getApproved",
      "outputs": [
        {
          "internalType": "address",
          "name": "",
          "type": "address"
        }
      ],
      "stateMutability": "view",
      "type": "function"
    },
    {
      "inputs": [],
      "name": "getCurrentTokenId",
      "outputs": [
        {
          "internalType": "uint256",
          "name": "",
          "type": "uint256"
        }
      ],
      "stateMutability": "view",
      "type": "function"
    },
    {
      "inputs": [
        {
          "internalType": "address",
          "name": "owner",
          "type": "address"
        },
        {
          "internalType": "address",
          "name": "operator",
          "type": "address"
        }
      ],
      "name": "isApprovedForAll",
      "outputs": [
        {
          "internalType": "bool",
          "name": "",
          "type": "bool"
        }
      ],
      "stateMutability": "view",
      "type": "function"
    },
    {
      "inputs": [],
      "name": "name",
      "outputs": [
        {
          "internalType": "string",
          "name": "",
          "type": "string"
        }
      ],
      "stateMutability": "view",
      "type": "function"
    },
    {
      "inputs": [
        {
          "internalType": "uint256",
          "name": "tokenId",
          "type": "uint256"
        }
      ],
      "name": "ownerOf",
      "outputs": [
        {
          "internalType": "address",
          "name": "",
          "type": "address"
        }
      ],
      "stateMutability": "view",
      "type": "function"
    },
    {
      "inputs": [
        {
          "internalType": "address",
          "name": "from",
          "type": "address"
        },
        {
          "internalType": "address",
          "name": "to",
          "type": "address"
        },
        {
          "internalType": "uint256",
          "name": "tokenId",
          "type": "uint256"
        }
      ],
      "name": "safeTransferFrom",
      "outputs": [],
      "stateMutability": "nonpayable",
      "type": "function"
    },
    {
      "inputs": [
        {
          "internalType": "address",
          "name": "from",
          "type": "address"
        },
        {
          "internalType": "address",
          "name": "to",
          "type": "address"
        },
        {
          "internalType": "uint256",
          "name": "tokenId",
          "type": "uint256"
        },
        {
          "internalType": "bytes",
          "name": "data",
          "type": "bytes"
        }
      ],
      "name": "safeTransferFrom",
      "outputs": [],
      "stateMutability": "nonpayable",
      "type": "function"
    },
    {
      "inputs": [
        {
          "internalType": "address",
          "name": "operator",
          "type": "address"
        },
        {
          "internalType": "bool",
          "name": "approved",
          "type": "bool"
        }
      ],
      "name": "setApprovalForAll",
      "outputs": [],
      "stateMutability": "nonpayable",
      "type": "function"
    },
    {
      "inputs": [
        {
          "internalType": "bytes4",
          "name": "interfaceId",
          "type": "bytes4"
        }
      ],
      "name": "supportsInterface",
      "outputs": [
        {
          "internalType": "bool",
          "name": "",
          "type": "bool"
        }
      ],
      "stateMutability": "view",
      "type": "function"
    },
    {
      "inputs": [],
      "name": "symbol",
      "outputs": [
        {
          "internalType": "string",
          "name": "",
          "type": "string"
        }
      ],
      "stateMutability": "view",
      "type": "function"
    },
    {
      "inputs": [
        {
          "internalType": "uint256",
          "name": "tokenId",
          "type": "uint256"
        }
      ],
      "name": "tokenURI",
      "outputs": [
        {
          "internalType": "string",
          "name": "",
          "type": "string"
        }
      ],
      "stateMutability": "view",
      "type": "function"
    },
    {
      "inputs": [
        {
          "internalType": "address",
          "name": "officerContract",
          "type": "address"
        },
        {
          "internalType": "uint256",
          "name": "tokenId",
          "type": "uint256"
        }
      ],
      "name": "transferApplicationToOfficerContract",
      "outputs": [],
      "stateMutability": "nonpayable",
      "type": "function"
    },
    {
      "inputs": [
        {
          "internalType": "address",
          "name": "from",
          "type": "address"
        },
        {
          "internalType": "address",
          "name": "to",
          "type": "address"
        },
        {
          "internalType": "uint256",
          "name": "tokenId",
          "type": "uint256"
        }
      ],
      "name": "transferFrom",
      "outputs": [],
      "stateMutability": "nonpayable",
      "type": "function"
    }
  ],
  "bytecode": {
    "object": "0x60806040523480156200001157600080fd5b5060405162001de938038062001de98339810160408190526200003491620000f5565b6040518060400160405280600b81526020016a20b8383634b1b0ba34b7b760a91b8152506040518060400160405280600381526020016204150560ec1b8152508160009081620000859190620001d2565b506001620000948282620001d2565b5050600880546001600160a01b03199081163317909155600980546001600160a01b03958616908316179055600a805493909416921691909117909155506200029e565b80516001600160a01b0381168114620000f057600080fd5b919050565b600080604083850312156200010957600080fd5b6200011483620000d8565b91506200012460208401620000d8565b90509250929050565b634e487b7160e01b600052604160045260246000fd5b600181811c908216806200015857607f821691505b6020821081036200017957634e487b7160e01b600052602260045260246000fd5b50919050565b601f821115620001cd57600081815260208120601f850160051c81016020861015620001a85750805b601f850160051c820191505b81811015620001c957828155600101620001b4565b5050505b505050565b81516001600160401b03811115620001ee57620001ee6200012d565b6200020681620001ff845462000143565b846200017f565b602080601f8311600181146200023e5760008415620002255750858301515b600019600386901b1c1916600185901b178555620001c9565b600085815260208120601f198616915b828110156200026f578886015182559484019460019091019084016200024e565b50858210156200028e5787850151600019600388901b60f8161c191681555b5050505050600190811b01905550565b611b3b80620002ae6000396000f3fe608060405234801561001057600080fd5b50600436106101215760003560e01c806356189236116100ad578063a22cb46511610071578063a22cb46514610262578063b2da51a814610275578063b88d4fde14610288578063c87b56dd1461029b578063e985e9c5146102ae57600080fd5b8063561892361461020b5780636352211e1461022157806370a0823114610234578063938019a51461024757806395d89b411461025a57600080fd5b80631920f6db116100f45780631920f6db146101a35780631f2f4bfd146101b457806323b872dd146101d457806342842e0e146101e75780634eb6b23c146101fa57600080fd5b806301ffc9a71461012657806306fdde031461014e578063081812fc14610163578063095ea7b31461018e575b600080fd5b61013961013436600461147a565b6102ea565b60405190151581526020015b60405180910390f35b61015661033c565b60405161014591906114e7565b6101766101713660046114fa565b6103ce565b6040516001600160a01b039091168152602001610145565b6101a161019c366004611528565b6103f5565b005b6009546001600160a01b0316610176565b6101c76101c23660046114fa565b610535565b6040516101459190611554565b6101a16101e23660046115b5565b61078a565b6101a16101f53660046115b5565b6107cc565b600a546001600160a01b0316610176565b6102136107e7565b604051908152602001610145565b61017661022f3660046114fa565b6107f7565b6102136102423660046115f6565b610857565b6101a16102553660046116bf565b6108dd565b61015661097d565b6101a1610270366004611747565b61098c565b6101a1610283366004611528565b6109ac565b6101a1610296366004611785565b610bf1565b6101566102a93660046114fa565b610c34565b6101396102bc366004611805565b6001600160a01b03918216600090815260056020908152604080832093909416825291909152205460ff1690565b60006001600160e01b031982166380ac58cd60e01b148061031b57506001600160e01b03198216635b5e139f60e01b145b8061033657506301ffc9a760e01b6001600160e01b03198316145b92915050565b60606000805461034b90611833565b80601f016020809104026020016040519081016040528092919081815260200182805461037790611833565b80156103c45780601f10610399576101008083540402835291602001916103c4565b820191906000526020600020905b8154815290600101906020018083116103a757829003601f168201915b5050505050905090565b60006103d982610ca8565b506000908152600460205260409020546001600160a01b031690565b6000610400826107f7565b9050806001600160a01b0316836001600160a01b0316036104725760405162461bcd60e51b815260206004820152602160248201527f4552433732313a20617070726f76616c20746f2063757272656e74206f776e656044820152603960f91b60648201526084015b60405180910390fd5b806001600160a01b031661048e6009546001600160a01b031690565b6001600160a01b031614806104b457506104b4816102bc6009546001600160a01b031690565b6105265760405162461bcd60e51b815260206004820152603d60248201527f4552433732313a20617070726f76652063616c6c6572206973206e6f7420746f60448201527f6b656e206f776e6572206f7220617070726f76656420666f7220616c6c0000006064820152608401610469565b6105308383610d0a565b505050565b61055960405180606001604052806060815260200160608152602001606081525090565b6000828152600260205260409020546001600160a01b03166105b55760405162461bcd60e51b8152602060048201526015602482015274105c1c1b1a58d85d1a5bdb881b9bdd08199bdd5b99605a1b6044820152606401610469565b600082815260076020526040908190208151606081019092528054829082906105dd90611833565b80601f016020809104026020016040519081016040528092919081815260200182805461060990611833565b80156106565780601f1061062b57610100808354040283529160200191610656565b820191906000526020600020905b81548152906001019060200180831161063957829003601f168201915b5050505050815260200160018201805461066f90611833565b80601f016020809104026020016040519081016040528092919081815260200182805461069b90611833565b80156106e85780601f106106bd576101008083540402835291602001916106e8565b820191906000526020600020905b8154815290600101906020018083116106cb57829003601f168201915b5050505050815260200160028201805461070190611833565b80601f016020809104026020016040519081016040528092919081815260200182805461072d90611833565b801561077a5780601f1061074f5761010080835404028352916020019161077a565b820191906000526020600020905b81548152906001019060200180831161075d57829003601f168201915b5050505050815250509050919050565b6107a561079f6009546001600160a01b031690565b82610d78565b6107c15760405162461bcd60e51b81526004016104699061186d565b610530838383610df7565b61053083838360405180602001604052806000815250610bf1565b60006107f260065490565b905090565b6000818152600260205260408120546001600160a01b0316806103365760405162461bcd60e51b8152602060048201526018602482015277115490cdcc8c4e881a5b9d985b1a59081d1bdad95b88125160421b6044820152606401610469565b60006001600160a01b0382166108c15760405162461bcd60e51b815260206004820152602960248201527f4552433732313a2061646472657373207a65726f206973206e6f7420612076616044820152683634b21037bbb732b960b91b6064820152608401610469565b506001600160a01b031660009081526003602052604090205490565b60006108e860065490565b600954909150610901906001600160a01b031682610f5b565b61090f600680546001019055565b6040805160608101825285815260208082018690528183018590526000848152600790915291909120815182919081906109499082611908565b506020820151600182019061095e9082611908565b50604082015160028201906109739082611908565b5050505050505050565b60606001805461034b90611833565b6109a86109a16009546001600160a01b031690565b83836110e6565b5050565b6000818152600260205260409020546001600160a01b0316610a085760405162461bcd60e51b8152602060048201526015602482015274105c1c1b1a58d85d1a5bdb881b9bdd08199bdd5b99605a1b6044820152606401610469565b6000610a13826107f7565b6008549091506001600160a01b0380831691161480610a3f57506009546001600160a01b038281169116145b610acc5760405162461bcd60e51b815260206004820152605260248201527f4f6e6c792074686520636f6e7472616374206465706c6f796572206f7220617560448201527f74686f72697a6564206170706c6963616e7420636f6e74726163742063616e2060648201527131b0b636103a3434b990333ab731ba34b7b760711b608482015260a401610469565b600a5460095460405163114f677d60e21b81526001600160a01b039182166004820152600092919091169063453d9df490602401602060405180830381865afa158015610b1d573d6000803e3d6000fd5b505050506040513d601f19601f82011682018060405250810190610b4191906119c8565b9050836001600160a01b0316816001600160a01b031614610bca5760405162461bcd60e51b815260206004820152603b60248201527f596f752063616e206f6e6c792073656e6420796f7572206170706c696361746960448201527f6f6e20746f20796f75722061737369676e6564206f66666963657200000000006064820152608401610469565b610bd484846103f5565b600954610beb906001600160a01b031685856107cc565b50505050565b610c0c610c066009546001600160a01b031690565b83610d78565b610c285760405162461bcd60e51b81526004016104699061186d565b610beb848484846111b4565b6060610c3f82610ca8565b6000610c5660408051602081019091526000815290565b90506000815111610c765760405180602001604052806000815250610ca1565b80610c80846111e7565b604051602001610c919291906119e5565b6040516020818303038152906040525b9392505050565b6000818152600260205260409020546001600160a01b0316610d075760405162461bcd60e51b8152602060048201526018602482015277115490cdcc8c4e881a5b9d985b1a59081d1bdad95b88125160421b6044820152606401610469565b50565b600081815260046020526040902080546001600160a01b0319166001600160a01b0384169081179091558190610d3f826107f7565b6001600160a01b03167f8c5be1e5ebec7d5bd14f71427d1e84f3dd0314c0f7b2291e5b200ac8c7c3b92560405160405180910390a45050565b600080610d84836107f7565b9050806001600160a01b0316846001600160a01b03161480610dcb57506001600160a01b0380821660009081526005602090815260408083209388168352929052205460ff165b80610def5750836001600160a01b0316610de4846103ce565b6001600160a01b0316145b949350505050565b826001600160a01b0316610e0a826107f7565b6001600160a01b031614610e305760405162461bcd60e51b815260040161046990611a14565b6001600160a01b038216610e925760405162461bcd60e51b8152602060048201526024808201527f4552433732313a207472616e7366657220746f20746865207a65726f206164646044820152637265737360e01b6064820152608401610469565b826001600160a01b0316610ea5826107f7565b6001600160a01b031614610ecb5760405162461bcd60e51b815260040161046990611a14565b600081815260046020908152604080832080546001600160a01b03199081169091556001600160a01b0387811680865260038552838620805460001901905590871680865283862080546001019055868652600290945282852080549092168417909155905184937fddf252ad1be2c89b69c2b068fc378daa952ba7f163c4a11628f55a4df523b3ef91a4505050565b6001600160a01b038216610fb15760405162461bcd60e51b815260206004820181905260248201527f4552433732313a206d696e7420746f20746865207a65726f20616464726573736044820152606401610469565b6000818152600260205260409020546001600160a01b0316156110165760405162461bcd60e51b815260206004820152601c60248201527f4552433732313a20746f6b656e20616c7265616479206d696e746564000000006044820152606401610469565b6000818152600260205260409020546001600160a01b03161561107b5760405162461bcd60e51b815260206004820152601c60248201527f4552433732313a20746f6b656e20616c7265616479206d696e746564000000006044820152606401610469565b6001600160a01b038216600081815260036020908152604080832080546001019055848352600290915280822080546001600160a01b0319168417905551839291907fddf252ad1be2c89b69c2b068fc378daa952ba7f163c4a11628f55a4df523b3ef908290a45050565b816001600160a01b0316836001600160a01b0316036111475760405162461bcd60e51b815260206004820152601960248201527f4552433732313a20617070726f766520746f2063616c6c6572000000000000006044820152606401610469565b6001600160a01b03838116600081815260056020908152604080832094871680845294825291829020805460ff191686151590811790915591519182527f17307eab39ab6107e8899845ad3d59bd9653f200f220920489ca2b5937696c31910160405180910390a3505050565b6111bf848484610df7565b6111cb8484848461127a565b610beb5760405162461bcd60e51b815260040161046990611a59565b606060006111f48361138c565b600101905060008167ffffffffffffffff81111561121457611214611613565b6040519080825280601f01601f19166020018201604052801561123e576020820181803683370190505b5090508181016020015b600019016f181899199a1a9b1b9c1cb0b131b232b360811b600a86061a8153600a850494508461124857509392505050565b60006001600160a01b0384163b1561138157836001600160a01b031663150b7a026112ad6009546001600160a01b031690565b8786866040518563ffffffff1660e01b81526004016112cf9493929190611aab565b6020604051808303816000875af192505050801561130a575060408051601f3d908101601f1916820190925261130791810190611ae8565b60015b611367573d808015611338576040519150601f19603f3d011682016040523d82523d6000602084013e61133d565b606091505b50805160000361135f5760405162461bcd60e51b815260040161046990611a59565b805181602001fd5b6001600160e01b031916630a85bd0160e11b149050610def565b506001949350505050565b60008072184f03e93ff9f4daa797ed6e38ed64bf6a1f0160401b83106113cb5772184f03e93ff9f4daa797ed6e38ed64bf6a1f0160401b830492506040015b6d04ee2d6d415b85acef810000000083106113f7576d04ee2d6d415b85acef8100000000830492506020015b662386f26fc10000831061141557662386f26fc10000830492506010015b6305f5e100831061142d576305f5e100830492506008015b612710831061144157612710830492506004015b60648310611453576064830492506002015b600a83106103365760010192915050565b6001600160e01b031981168114610d0757600080fd5b60006020828403121561148c57600080fd5b8135610ca181611464565b60005b838110156114b257818101518382015260200161149a565b50506000910152565b600081518084526114d3816020860160208601611497565b601f01601f19169290920160200192915050565b602081526000610ca160208301846114bb565b60006020828403121561150c57600080fd5b5035919050565b6001600160a01b0381168114610d0757600080fd5b6000806040838503121561153b57600080fd5b823561154681611513565b946020939093013593505050565b60208152600082516060602084015261157060808401826114bb565b90506020840151601f198085840301604086015261158e83836114bb565b92506040860151915080858403016060860152506115ac82826114bb565b95945050505050565b6000806000606084860312156115ca57600080fd5b83356115d581611513565b925060208401356115e581611513565b929592945050506040919091013590565b60006020828403121561160857600080fd5b8135610ca181611513565b634e487b7160e01b600052604160045260246000fd5b600067ffffffffffffffff8084111561164457611644611613565b604051601f8501601f19908116603f0116810190828211818310171561166c5761166c611613565b8160405280935085815286868601111561168557600080fd5b858560208301376000602087830101525050509392505050565b600082601f8301126116b057600080fd5b610ca183833560208501611629565b6000806000606084860312156116d457600080fd5b833567ffffffffffffffff808211156116ec57600080fd5b6116f88783880161169f565b9450602086013591508082111561170e57600080fd5b61171a8783880161169f565b9350604086013591508082111561173057600080fd5b5061173d8682870161169f565b9150509250925092565b6000806040838503121561175a57600080fd5b823561176581611513565b91506020830135801515811461177a57600080fd5b809150509250929050565b6000806000806080858703121561179b57600080fd5b84356117a681611513565b935060208501356117b681611513565b925060408501359150606085013567ffffffffffffffff8111156117d957600080fd5b8501601f810187136117ea57600080fd5b6117f987823560208401611629565b91505092959194509250565b6000806040838503121561181857600080fd5b823561182381611513565b9150602083013561177a81611513565b600181811c9082168061184757607f821691505b60208210810361186757634e487b7160e01b600052602260045260246000fd5b50919050565b6020808252602d908201527f4552433732313a2063616c6c6572206973206e6f7420746f6b656e206f776e6560408201526c1c881bdc88185c1c1c9bdd9959609a1b606082015260800190565b601f82111561053057600081815260208120601f850160051c810160208610156118e15750805b601f850160051c820191505b81811015611900578281556001016118ed565b505050505050565b815167ffffffffffffffff81111561192257611922611613565b611936816119308454611833565b846118ba565b602080601f83116001811461196b57600084156119535750858301515b600019600386901b1c1916600185901b178555611900565b600085815260208120601f198616915b8281101561199a5788860151825594840194600190910190840161197b565b50858210156119b85787850151600019600388901b60f8161c191681555b5050505050600190811b01905550565b6000602082840312156119da57600080fd5b8151610ca181611513565b600083516119f7818460208801611497565b835190830190611a0b818360208801611497565b01949350505050565b60208082526025908201527f4552433732313a207472616e736665722066726f6d20696e636f72726563742060408201526437bbb732b960d91b606082015260800190565b60208082526032908201527f4552433732313a207472616e7366657220746f206e6f6e20455243373231526560408201527131b2b4bb32b91034b6b83632b6b2b73a32b960711b606082015260800190565b6001600160a01b0385811682528416602082015260408101839052608060608201819052600090611ade908301846114bb565b9695505050505050565b600060208284031215611afa57600080fd5b8151610ca18161146456fea264697066735822122070fbfc6830886f41215b695f5fd7c8904dc6c1511cf64a919b0d3205df8f0e4664736f6c63430008140033",
    "linkReferences": {}
  },
  "methodIdentifiers": {
    "approve(address,uint256)": "095ea7b3",
    "balanceOf(address)": "70a08231",
    "createApplication(string,string,string)": "938019a5",
    "getAdmissionsContractAddress()": "4eb6b23c",
    "getApplicantContractAddress()": "1920f6db",
    "getApplication(uint256)": "1f2f4bfd",
    "getApproved(uint256)": "081812fc",
    "getCurrentTokenId()": "56189236",
    "isApprovedForAll(address,address)": "e985e9c5",
    "name()": "06fdde03",
    "ownerOf(uint256)": "6352211e",
    "safeTransferFrom(address,address,uint256)": "42842e0e",
    "safeTransferFrom(address,address,uint256,bytes)": "b88d4fde",
    "setApprovalForAll(address,bool)": "a22cb465",
    "supportsInterface(bytes4)": "01ffc9a7",
    "symbol()": "95d89b41",
    "tokenURI(uint256)": "c87b56dd",
    "transferApplicationToOfficerContract(address,uint256)": "b2da51a8",
    "transferFrom(address,address,uint256)": "23b872dd"
  },
  "id": 1
}