{
  "abi": [
    {
      "inputs": [
        {
          "internalType": "address",
          "name": "_admissions",
          "type": "address"
        }
      ],
      "stateMutability": "nonpayable",
      "type": "constructor"
    },
    {
      "inputs": [],
      "name": "acceptOffer",
      "outputs": [],
      "stateMutability": "nonpayable",
      "type": "function"
    },
    {
      "inputs": [],
      "name": "admissionDecision",
      "outputs": [
        {
          "internalType": "string",
          "name": "",
          "type": "string"
        }
      ],
      "stateMutability": "view",
      "type": "function"
    },
    {
      "inputs": [],
      "name": "admissionsContract",
      "outputs": [
        {
          "internalType": "address",
          "name": "",
          "type": "address"
        }
      ],
      "stateMutability": "view",
      "type": "function"
    },
    {
      "inputs": [],
      "name": "applicant",
      "outputs": [
        {
          "internalType": "address",
          "name": "",
          "type": "address"
        }
      ],
      "stateMutability": "view",
      "type": "function"
    },
    {
      "inputs": [],
      "name": "decisionReceived",
      "outputs": [
        {
          "internalType": "bool",
          "name": "",
          "type": "bool"
        }
      ],
      "stateMutability": "view",
      "type": "function"
    },
    {
      "inputs": [],
      "name": "getAssignedOfficer",
      "outputs": [
        {
          "internalType": "address",
          "name": "",
          "type": "address"
        }
      ],
      "stateMutability": "view",
      "type": "function"
    },
    {
      "inputs": [
        {
          "internalType": "address",
          "name": "_officerContract",
          "type": "address"
        }
      ],
      "name": "grantOfficerApproval",
      "outputs": [],
      "stateMutability": "nonpayable",
      "type": "function"
    },
    {
      "inputs": [],
      "name": "isApplicantRegistered",
      "outputs": [
        {
          "internalType": "bool",
          "name": "",
          "type": "bool"
        }
      ],
      "stateMutability": "view",
      "type": "function"
    },
    {
      "inputs": [
        {
          "internalType": "string",
          "name": "decision",
          "type": "string"
        }
      ],
      "name": "receiveDecision",
      "outputs": [],
      "stateMutability": "nonpayable",
      "type": "function"
    }
  ],
  "bytecode": {
    "object": "0x608060405234801561001057600080fd5b50604051610bab380380610bab83398101604081905261002f916100bc565b60038054336001600160a01b0319918216179091556000805482166001600160a01b038416908117909155600180543093168317905560405163375f912160e11b8152600481019290925290636ebf224290602401600060405180830381600087803b15801561009e57600080fd5b505af11580156100b2573d6000803e3d6000fd5b50505050506100ec565b6000602082840312156100ce57600080fd5b81516001600160a01b03811681146100e557600080fd5b9392505050565b610ab0806100fb6000396000f3fe608060405234801561001057600080fd5b50600436106100935760003560e01c80638d6e904f116100665780638d6e904f1461011a578063b3e383b81461012d578063eb62df6114610135578063f04deef41461013d578063f2e7e7ef1461015057600080fd5b806310dd7535146100985780634abb1ed1146100b6578063529f6239146100da57806388e687ea146100ef575b600080fd5b6100a0610158565b6040516100ad91906106fb565b60405180910390f35b6001546100ca90600160a01b900460ff1681565b60405190151581526020016100ad565b6100ed6100e8366004610749565b6101e6565b005b600154610102906001600160a01b031681565b6040516001600160a01b0390911681526020016100ad565b600054610102906001600160a01b031681565b6101026102b8565b6100ed61036f565b6100ed61014b3660046107d3565b6105e8565b6100ca610649565b60028054610165906107f7565b80601f0160208091040260200160405190810160405280929190818152602001828054610191906107f7565b80156101de5780601f106101b3576101008083540402835291602001916101de565b820191906000526020600020905b8154815290600101906020018083116101c157829003601f168201915b505050505081565b6003546001600160a01b031633148061020957506004546001600160a01b031633145b61022e5760405162461bcd60e51b815260040161022590610831565b60405180910390fd5b600154600160a01b900460ff16156102935760405162461bcd60e51b815260206004820152602260248201527f4465636973696f6e2068617320616c7265616479206265656e20726563656976604482015261195960f21b6064820152608401610225565b6001805460ff60a01b1916600160a01b17905560026102b3828483610904565b505050565b6003546000906001600160a01b03163314806102de57506004546001600160a01b031633145b6102fa5760405162461bcd60e51b815260040161022590610831565b60005460015460405163114f677d60e21b81526001600160a01b03918216600482015291169063453d9df490602401602060405180830381865afa158015610346573d6000803e3d6000fd5b505050506040513d601f19601f8201168201806040525081019061036a91906109c5565b905090565b600154600160a01b900460ff166103c85760405162461bcd60e51b815260206004820152601960248201527f4465636973696f6e206e6f7420726563656976656420796574000000000000006044820152606401610225565b6000600280546103d7906107f7565b9050116104265760405162461bcd60e51b815260206004820181905260248201527f41646d697373696f6e206465636973696f6e206e6f7420617661696c61626c656044820152606401610225565b7f7d104161c45a3245104f4140c83d1fe11fd80f76a0a34cf58df6d5011f4b2870600260405161045691906109e2565b6040518091039020146104d15760405162461bcd60e51b815260206004820152603760248201527f596f752063616e206f6e6c792061636365707420746865206f6666657220696660448201527f20796f752068617665206265656e2061636365707465640000000000000000006064820152608401610225565b60005460405163b62f1ec360e01b81523060048201526001600160a01b039091169063b62f1ec390602401600060405180830381600087803b15801561051657600080fd5b505af115801561052a573d6000803e3d6000fd5b5050600054604051633e2bc55b60e21b81523060048201526001600160a01b03909116925063f8af156c9150602401600060405180830381600087803b15801561057357600080fd5b505af1158015610587573d6000803e3d6000fd5b5050600080546040805163c3b6846360e01b815290516001600160a01b03909216945063c3b684639350600480820193929182900301818387803b1580156105ce57600080fd5b505af11580156105e2573d6000803e3d6000fd5b50505050565b6003546001600160a01b031633148061060b57506004546001600160a01b031633145b6106275760405162461bcd60e51b815260040161022590610831565b600480546001600160a01b0319166001600160a01b0392909216919091179055565b6003546000906001600160a01b031633148061066f57506004546001600160a01b031633145b61068b5760405162461bcd60e51b815260040161022590610831565b60005460015460405163f4310d4960e01b81526001600160a01b03918216600482015291169063f4310d4990602401602060405180830381865afa1580156106d7573d6000803e3d6000fd5b505050506040513d601f19601f8201168201806040525081019061036a9190610a58565b600060208083528351808285015260005b818110156107285785810183015185820160400152820161070c565b506000604082860101526040601f19601f8301168501019250505092915050565b6000806020838503121561075c57600080fd5b823567ffffffffffffffff8082111561077457600080fd5b818501915085601f83011261078857600080fd5b81358181111561079757600080fd5b8660208285010111156107a957600080fd5b60209290920196919550909350505050565b6001600160a01b03811681146107d057600080fd5b50565b6000602082840312156107e557600080fd5b81356107f0816107bb565b9392505050565b600181811c9082168061080b57607f821691505b60208210810361082b57634e487b7160e01b600052602260045260246000fd5b50919050565b60208082526049908201527f4f6e6c792074686520636f6e7472616374206465706c6f796572206f7220746860408201527f6520617070726f766564206f6666696365722063616e2063616c6c207468697360608201526810333ab731ba34b7b760b91b608082015260a00190565b634e487b7160e01b600052604160045260246000fd5b601f8211156102b357600081815260208120601f850160051c810160208610156108dd5750805b601f850160051c820191505b818110156108fc578281556001016108e9565b505050505050565b67ffffffffffffffff83111561091c5761091c6108a0565b6109308361092a83546107f7565b836108b6565b6000601f841160018114610964576000851561094c5750838201355b600019600387901b1c1916600186901b1783556109be565b600083815260209020601f19861690835b828110156109955786850135825560209485019460019092019101610975565b50868210156109b25760001960f88860031b161c19848701351681555b505060018560011b0183555b5050505050565b6000602082840312156109d757600080fd5b81516107f0816107bb565b60008083546109f0816107f7565b60018281168015610a085760018114610a1d57610a4c565b60ff1984168752821515830287019450610a4c565b8760005260208060002060005b85811015610a435781548a820152908401908201610a2a565b50505082870194505b50929695505050505050565b600060208284031215610a6a57600080fd5b815180151581146107f057600080fdfea2646970667358221220df3184c59488de6d06373964ea1e96f228f6c9368c8735a1bc286bb24e25645064736f6c63430008140033",
    "linkReferences": {}
  },
  "methodIdentifiers": {
    "acceptOffer()": "eb62df61",
    "admissionDecision()": "10dd7535",
    "admissionsContract()": "8d6e904f",
    "applicant()": "88e687ea",
    "decisionReceived()": "4abb1ed1",
    "getAssignedOfficer()": "b3e383b8",
    "grantOfficerApproval(address)": "f04deef4",
    "isApplicantRegistered()": "f2e7e7ef",
    "receiveDecision(string)": "529f6239"
  },
  "id": 0
}